:100000000C9482090C9400000C9400000C940000E5
:100010000C9400000C9400000C9400000C94000060
:100020000C9400000C9400000C9400000C94000050
:100030000C9400000C9400000C9400000C94000040
:100040000C9400000C9400000C9400000C94000030
:040050000C9400000C
:10130400BFE5BDBFB8E0BEBF0E94150A7BDFB5DFF5
:061314009DDFFECFFFCFBC
:101208002F923F924F925F926F9205E214E1302E37
:10121800412E222427DFB0E83B2EB5E24B2EB0E06A
:101228005B2E6B2EB0E12B2EB3DF25E01FE002EF23
:101238000A95F1F71A95E1F72A95D1F76F905F9023
:081248004F903F902F90089594
:10106C002F923F924F920EC0232C342CF3DD14C0E0
:10107C00232C342C36DE10C0232C342C79DE0CC0FF
:10108C0001E00AC0B0E02B1679F3B1E02B1681F326
:10109C00B2E02B1689F3F4CF4F903F902F90089528
:0010AC0044
:100C6000CF93DF93CDB7DEB72297CDBFDEBF2196FE
:100C70002F923F9281010883198313C0B1B1BE7FC7
:100C8000B1B9B1B1BD7FB1B9B0E2B0B9B2DB26C084
:100C900033DC222430DB2224B1DBA8DB1FC004E0DC
:100CA0001EC048815981FA01059115912591359110
:100CB000303029F4213019F4163809F4003AF1F2F1
:100CC000FA010591159125913591303029F42030A4
:100CD00019F4103009F40030D9F2E1CF00E03F9070
:0E0CE0002F902196CDBFDEBFDF91CF910895FA
:1004F8002F924091B1005091B2006091B300709179
:10050800B400B4EAB6BFB6B7B7FD25C00091B100D4
:100518001091B2002091B3003091B400B02FB12BEC
:10052800B22BB32BB9F0B42FB52BB62BB72B49F49C
:10053800B5E02B2EE0913C01F0913D01099501E0D9
:1005480010C08A019B010150104020403040A80192
:10055800B90100C0D8CFB2DE0830B0E009F0B1E090
:060568000B2F2F900895F7
:1002DE00BBB1B5FD01C0FCCFBBB1B6FF03C0BBB116
:0802EE00B064BBB92CB80895FF
:1002F6002F924091B1005091B2006091B30070917D
:10030600B40023B8B4E8B6BFB6B7B7FD24C00091B1
:10031600B1001091B2002091B3003091B400B02F1B
:10032600B12BB22BB32BB1F0B42FB52BB62BB72B09
:1003360041F4B4E02B2EE0913C01F0913D0109958A
:100346000AC08A019B010150104020403040A8019C
:0A035600B90100C0D9CF2F9008951F
:0A01580020FABBB3B7F9BBBB089552
:0A01620020FABBB3B6F9BBBB089549
:0A016C0020FABBB3B5F9BBBB089540
:0A014E0020FAB8B3B7F9B8BB089562
:0A01300020FAB8B3B6F9B8BB089581
:0A013A0020FAB8B3B5F9B8BB089578
:0A01440020FAB2B3B4F9B2BB08957B
:0A019E0020FAB2B3B2F9B2BB089523
:0A01A80020FAB2B3B0F9B2BB08951B
:0A01B20020FAB2B3B1F9B2BB089510
:0A01940020FAB5B3B0F9B5BB089529
:0A01760020FAB5B3B1F9B5BB089546
:0A01800020FABBB3B0F9BBBB089531
:0A018A0020FABBB3B1F9BBBB089526
:0A01260020FABBB3B3F9BBBB089588
:0A00900020FAB8B3B7F9B8BB089521
:0A00860020FAB8B3B6F9B8BB08952C
:0A009A0020FAB8B3B5F9B8BB089519
:0A00AE0020FAB2B3B5F9B2BB089511
:0A00A40020FAB2B3B3F9B2BB08951D
:0A005E0020FAB2B3B0F9B2BB089566
:0A00540020FAB2B3B1F9B2BB08956F
:0A00680020FAB5B3B0F9B5BB089556
:0A007C0020FAB5B3B1F9B5BB089541
:0A00720020FABBB3B4F9BBBB08953C
:0A00B80020FAB8B3B0F9B8BB089500
:0A00FE0020FAB8B3B4F9B8BB0895B6
:0A00F40020FAB8B3B7F9B8BB0895BD
:0A01080020FAB8B3B6F9B8BB0895A9
:0A011C0020FAB8B3B5F9B8BB089596
:0A01120020FAB8B3B3F9B8BB0895A2
:0A00CC0020FAB8B3B2F9B8BB0895EA
:0A00C20020FAB2B3B2F9B2BB089500
:0A00D60020FAB2B3B3F9B2BB0895EB
:0A00EA0020FAB5B3B0F9B5BB0895D4
:0A00E00020FAB5B3B1F9B5BB0895DD
:0602C40001B1087F08955E
:1003FC002F924091B1005091B2006091B300709176
:10040C00B400B4E8B6BF20FAB6B7B6F9B6BFB6B703
:10041C00B7FD25C00091B1001091B2002091B3003E
:10042C003091B400B02FB12BB22BB32BB9F0B42F49
:10043C00B52BB62BB72B49F4B3E02B2EE0913C0136
:10044C00F0913D01099501E00BC08A019B0101501F
:10045C00104020403040A801B90100C0D8CF03B1F2
:04046C002F90089530
:0603EC00B4E9B6BF08955C
:0A03F200B0E3B1B9B4E0B6BF08955E
:100CEE00CF93DF93CDB7DEB72297CDBFDEBF219670
:100CFE002F923F9281010883198313C0B1B1BE7F39
:100D0E00B1B9B1B1BD7FB1B9B0E2B0B96BDB26C03C
:100D1E00ECDB2224E9DA22246ADB61DB1FC004E06B
:100D2E001EC048815981FA01059115912591359181
:100D3E00303029F4213019F4163809F4003AF1F262
:100D4E00FA010591159125913591303029F4203015
:100D5E0019F4103009F40030D9F2E1CF00E03F90E1
:0E0D6E002F902196CDBFDEBFDF91CF9108956B
:040D7C0004E00895F2
:101198002F923F924F925F926F921AC0232C342C59
:1011A800452C562CD7DC21C0232C342C452C562C0E
:1011B800CBDB1BC0232C342C452C562C47DC15C00C
:1011C800232C342C452C562C43DC0FC001E00DC0D9
:1011D800B0E02B1619F3B1E02B1631F3B2E02B1661
:1011E80049F3B0E12B1661F3F1CF6F905F904F9008
:0611F8003F902F900895C6
:100B5C002BC0B7E6B9B9B0E0B0BD03DD73C0B3E3E9
:100B6C00B9B9B0E0B0BDFDDC6DC0B9E1B9B9B0E068
:100B7C00B0BDF7DC67C0BCE0B9B9B0E0B0BDF1DC2A
:100B8C0061C0BBB1B260BBB9B0E1B9B9B0E0B0BD46
:100B9C00E8DC58C0BBB1B260BBB9B8E0B9B9B0E0E1
:100BAC00B0BDDFDC4FC04EC0B0E05B1641F4B0E02E
:100BBC004B1629F4B2E13B1611F4B0EC2B1649F2AA
:100BCC00B0E05B1641F4B0E04B1629F4B5E23B16ED
:100BDC0011F4B0E82B1609F4C2CFB0E05B1641F467
:100BEC00B0E04B1629F4BBE43B1611F4B0E02B1625
:100BFC0009F4BBCFB0E05B1641F4B0E04B1629F41E
:100C0C00B6E93B1611F4B0E02B1609F4B4CFB0E002
:100C1C005B1641F4B0E04B1629F4B1EE3B1611F41F
:100C2C00B0E02B1609F4ADCFB0E05B1641F4B1E0A7
:100C3C004B1629F4B2EC3B1611F4B0E02B1609F468
:100C4C00A9CFB1CFBFE6B0933701B1E0B093380173
:040C5C0000E0089517
:10056E00BFE6B0934401B1E0B0934501B8EEB0934D
:10057E004201B0E0B0934301BFEEB0934001B0E052
:10058E00B0934101BAEEB0933501B0E0B0933601AD
:10059E00B1B3BE7FB1BBB1B3B260B1BB0AB108613A
:0805AE000AB9B6E8B0BD0895DA
:100950002BC0B7E6B9B9B0E0B0BD09DE73C0B3E3F0
:10096000B9B9B0E0B0BD03DE6DC0B9E1B9B9B0E06E
:10097000B0BDFDDD67C0BCE0B9B9B0E0B0BDF7DD2A
:1009800061C0BBB1B260BBB9B0E1B9B9B0E0B0BD54
:10099000EEDD58C0BBB1B260BBB9B8E0B9B9B0E0E8
:1009A000B0BDE5DD4FC04EC0B0E05B1641F4B0E035
:1009B0004B1629F4B2E13B1611F4B0EC2B1649F2B8
:1009C000B0E05B1641F4B0E04B1629F4B5E23B16FB
:1009D00011F4B0E82B1609F4C2CFB0E05B1641F475
:1009E000B0E04B1629F4BBE43B1611F4B0E02B1633
:1009F00009F4BBCFB0E05B1641F4B0E04B1629F42C
:100A0000B6E93B1611F4B0E02B1609F4B4CFB0E010
:100A10005B1641F4B0E04B1629F4B1EE3B1611F42D
:100A2000B0E02B1609F4ADCFB0E05B1641F4B1E0B5
:100A30004B1629F4B2EC3B1611F4B0E02B1609F476
:100A4000A9CFB1CFBFE6B0933701B1E0B093380181
:040A500000E0089525
:040A540006E008951B
:100A58002BC0B7E6B9B9B0E0B0BD85DD73C0B3E36C
:100A6800B9B9B0E0B0BD7FDD6DC0B9E1B9B9B0E0EA
:100A7800B0BD79DD67C0BCE0B9B9B0E0B0BD73DD29
:100A880061C0BBB1B260BBB9B0E1B9B9B0E0B0BD4B
:100A98006ADD58C0BBB1B260BBB9B8E0B9B9B0E063
:100AA800B0BD61DD4FC04EC0B0E05B1641F4B0E0B0
:100AB8004B1629F4B2E13B1611F4B0EC2B1649F2AF
:100AC800B0E05B1641F4B0E04B1629F4B5E23B16F2
:100AD80011F4B0E82B1609F4C2CFB0E05B1641F46C
:100AE800B0E04B1629F4BBE43B1611F4B0E02B162A
:100AF80009F4BBCFB0E05B1641F4B0E04B1629F423
:100B0800B6E93B1611F4B0E02B1609F4B4CFB0E007
:100B18005B1641F4B0E04B1629F4B1EE3B1611F424
:100B2800B0E02B1609F4ADCFB0E05B1641F4B1E0AC
:100B38004B1629F4B2EC3B1611F4B0E02B1609F46D
:100B4800A9CFB1CFBFE6B0933701B1E0B093380178
:040B580000E008951C
:10127E002F923F924F925F926F92BCE56B2EBDE123
:10128E004B2EB4E15B2EBDEE2B2EB3E13B2E73DF66
:10129E0025E11BE40FEB0A95F1F71A95E1F72A9574
:1012AE00D1F70000B2E04B2EB7EF2B2EB0E03B2E65
:1012BE00FCDEB2E04B2EB2E12B2EB1E03B2EF5DE82
:1012CE00B2E04B2EB0E62B2EB0E03B2EEEDEB2E0BF
:1012DE004B2EBBE72B2EB0E03B2EE7DEB2E04B2EC3
:1012EE00B6E92B2EB0E03B2EE0DE6F905F904F9074
:0612FE003F902F900895BF
:1011840060923B013F922F92120107DE2F903F9015
:04119400F5DD0895E8
:100D9E00F101059115910093330110933401F10186
:100DAE003296059115910093390110933A01F10194
:100DBE003496059115910093780110937901F10104
:100DCE0036960591159100933E0110933F010895BB
:000DDE0015
:020D80000895D4
:1010B800CF93DF93CDB7DEB72297CDBFDEBF2196A2
:1010C8002F923F928101BDE0B883BAE0B98341C055
:1010D800180153DE4AC09801F9010081002389F004
:1010E8003F932F934F923F922F92190146DE2F90F4
:1010F8003F904F902F913F9189010F5F1F4F9801AB
:10110800EBCF33C09801F9010081002389F03F93A8
:101118002F934F923F922F9219012FDE2F903F90DD
:101128004F902F913F9189010F5F1F4F9801EBCF8F
:101138008E014F923F922F9218011FDE8E010F5F92
:101148001F4F18011ADE2F903F904F900EC006E0F7
:101158000DC0B0E04B1609F4BBCFB1E04B1609F453
:10116800BACFB2E04B1671F2F2CF00E03F902F9069
:0C1178002196CDBFDEBFDF91CF9108951E
:100D82002F923F92F1010081202EE0913701F091E4
:0C0D92003801099500E03F902F90089573
:101250002DDF00937C0110937D015CDE56DE009350
:101260007A0110937B0160DE2BEC1CEE05E80A95F9
:0E127000F1F71A95E1F72A95D1F700000895DD
:0C10AC002F92B2E02B2E95DE2F900895BD
:100DDE00CF93DF93CDB7DEB72D97CDBFDEBF219674
:100DEE003F924F925F926F927F92B0E0BB87B0E0DE
:100DFE00BC87FE01B3E0B0838E01F80131962082EC
:100E0E008E01F8013296B2E0B0832F92CDDB8E01C7
:100E1E00055F1F4F772455246624302E412E2090D7
:100E2E003B01DDDBC1DB8E017724B3E05B2EB0E04E
:100E3E006B2E302E412E20903B01D1DB2F901030A7
:100E4E0009F4003079F02F92AFDB8E01055F1F4F52
:100E5E00772455246624302E412E20903B01BFDB93
:100E6E002F9031C02F92A0DB8E010D5F1F4F772484
:100E7E00B6E05B2EB0E06B2E302E412E20903B0163
:100E8E0056DCAE014D5F5F4FFA0135960081098742
:100E9E00B0E0BA8709851A85302F222729873A872D
:100EAE00FA013496008110E0022B132B09871A8762
:100EBE00B4E04B2E1A0107DC2F9029853A850217D4
:100ECE00130709F401C0A1CFAE014D5F5F4FFA01C8
:100EDE003296008110E0302F2227FA0133960081DE
:100EEE0010E0022B132B7F906F905F904F903F90EE
:0C0EFE002C96CDBFDEBFDF91CF91089590
:1005B600CF93DF93CDB7DEB72297CDBFDEBF2196AF
:1005C600B0E0B883B983E0913301F0913401099525
:1005D6002881398110E0022B132B2196CDBFDEBF77
:0605E600DF91CF910895A2
:0401D0000CB10895D1
:0A01DE000BB0002707FC03950895FD
:0A01D4000BB0002706FC0395089508
:0A021A0009B2002707FC03950895C0
:0A02600009B2002706FC039508957B
:0A02560009B2002705FC0395089586
:0A026A0006B2002707FC0395089573
:0A027E0006B2002706FC0395089560
:0A02740006B2002705FC039508956B
:0A022E0000B2002704FC03950895B8
:0A02240000B2002702FC03950895C4
:0A02380000B2002700FC03950895B2
:0A024C0000B2002701FC039508959D
:0A02420003B2002700FC03950895A5
:0A01BC0003B2002701FC039508952B
:0A03D80009B2002700FC0395089508
:0A03CE0009B2002701FC0395089511
:0A03BA0009B2002703FC0395089523
:0A03C40006B2002707FC0395089518
:0A037E0006B2002706FC039508955F
:0A02CA0006B2002705FC0395089515
:0A02D40000B2002705FC0395089511
:0A03600000B2002703FC0395089586
:0A03740000B2002700FC0395089575
:0A036A0000B2002701FC039508957E
:0A02920003B2002700FC0395089555
:0A01C60003B2002701FC0395089521
:0A02060009B2002704FC03950895D7
:0A02100006B2002700FC03950895D4
:0A01FC0006B2002704FC03950895E5
:0A01E80006B2002707FC03950895F6
:0A01F20006B2002706FC03950895ED
:0A02880006B2002705FC0395089557
:0A03A60006B2002703FC039508953A
:0A03B00006B2002702FC0395089531
:0A039C0000B2002702FC039508954B
:0A03880000B2002703FC039508955E
:0A03920003B2002700FC0395089554
:0A03E20003B2002701FC0395089503
:1005EC00CF93DF93CDB7DEB72497CDBFDEBF219677
:1005FC002F92B0E0BA83BB8338824982022D000F60
:10060C007F926F925F92202EE0917801F0917901A8
:10061C0009955F906F907F90252D362D052D162D09
:10062C0001501040502E612EB22FB32BE1F0E88117
:10063C00F98100817F926F925F924F923F922F923D
:10064C00202EE0917801F091790109952F903F903F
:10065C004F905F906F907F90088119810F5F1F4FB3
:10066C0008831983D9CFB0E07B1689F47F926F92FF
:10067C005F924F923F922F92E0913901F0913A01A3
:10068C0009952F903F904F905F906F907F90B1E0C5
:10069C007B1689F47F926F925F924F923F922F92CA
:1006AC00E0913301F091340109952F903F904F90D8
:1006BC005F906F907F900A811B812F902396CDBF06
:0806CC00DEBFDF91CF9108951C
:10073C00CF93DF93CDB7DEB72497CDBFDEBF219625
:10074C002F92B0E0BA83BB8338824982022D000F0E
:10075C0001607F926F925F92202EE0917801F09170
:10076C00790109955F906F907F90052D162D0150A2
:10077C001040502E612EB02FB12BE9F07F926F926A
:10078C005F924F923F922F92B1E02B2EE0913E015F
:10079C00F0913F0109952F903F904F905F906F9093
:1007AC007F90E881F9810083088119810F5F1F4FC9
:1007BC0008831983DACF7F926F925F924F923F92A8
:1007CC002F922224E0913E01F0913F0109952F9048
:1007DC003F904F905F906F907F90E881F9810083FC
:1007EC00B0E07B1689F47F926F925F924F923F92AA
:1007FC002F92E0913901F0913A0109952F903F9099
:10080C004F905F906F907F90B1E07B1689F47F9250
:10081C006F925F924F923F922F92E0913301F09141
:10082C00340109952F903F904F905F906F907F907F
:10083C000A811B812F902396CDBFDEBFDF91CF9114
:02084C0008950D
:1006D4002FEF3FEF142D042D0150402E112351F123
:1006E400F101008110E002271327980181010F5FB7
:1006F4001F4F180100E0432F322F202F2830B8F469
:1007040030FF0BC0032F142F16950795B1E00B276C
:10071400B0EA1B27302F412F06C0032F142F169544
:100724000795302F412F022F0F5F202FE7CF232F64
:08073400342FD0CF8901089594
:100F140029E216E900E80A95F1F71A95E1F72A950E
:040F2400D1F7089564
:0A0F0A002F92222467DF2F90089534
:100F28002F923F924F925F92B1E04B2EBAEB2B2E4D
:100F3800B0E03B2EBDD04AE050E000917A0110911C
:100F48007B01A8D98C01B6E44B2EB1E05B2E1801C9
:100F58009BDCB6E42B2EB1E03B2E75DCB1E04B2ECA
:100F6800B6E42B2EB1E03B2EA3D0B1E04B2EB5EB6F
:100F78002B2EB0E03B2E9CD04AE050E000917A0145
:100F880010917B0187D98D01B6E44B2EB1E05B2E21
:100F980018017ADCB6E42B2EB1E03B2E54DCB1E02C
:100FA8004B2EB6E42B2EB1E03B2E82D0B2E04B2E76
:100FB800B7EB2B2EB0E03B2E7BD0B1E04B2EBBEC39
:100FC8002B2EB0E03B2E74D04AE050E000917C011B
:100FD80010917D015FD98C01B6E44B2EB1E05B2EF8
:100FE800180152DCB6E42B2EB1E03B2E2CDCB1E02C
:100FF8004B2EB6E42B2EB1E03B2E5AD0B1E04B2E4F
:10100800BDE22B2EB1E03B2E53D04AE050E00091D8
:101018007C0110917D013ED98D01B6E44B2EB1E0E3
:101028005B2E180131DCB6E42B2EB1E03B2E0BDC35
:10103800B1E04B2EB6E42B2EB1E03B2E39D0B2E016
:101048004B2EBFE22B2EB1E03B2E32D0B2E04B2E1E
:10105800BCED2B2EB0E03B2E2BD05F904F903F90F5
:041068002F90089528
:10089000CF93DF93CDB7DEB72497CDBFDEBF2196D0
:1008A0002F923F92B0E0B883B9832A823B8200E066
:1008B00010E02016310654F4B1E0B883B0E0B983FB
:1008C00000E010E0021913090A831B832A803B8091
:1008D000CFDD66E070E0AB0100E010E00417150723
:1008E00090F49A01240D351D8A0101501040F80141
:1008F000E40DF51D0081F90100838A0101501040CB
:10090000B801AB01E9CFF201B0E2B08308811981EF
:10091000B02FB12BA9F020E030E0F901E40DF51D76
:100920000081003229F489010F5F1F4F9801F5CF34
:10093000890101501040F801E40DF51DBDE2B083BE
:100940003F902F902396CDBFDEBFDF91CF910895CA
:00095000A7
:10047000CF93DF93CDB7DEB72297CDBFDEBF2196F6
:1004800010E0153050F4E12FF0E0E40DF51DB0E27E
:10049000B083012F0F5F102FF4CFE12FF0E0E40DB8
:1004A000F51DB0E0B083012F0150302F032F10E075
:1004B000040D151D088319834AE050E08101EEDE2A
:1004C0008D01202F205D08811981F80120834AE0E9
:1004D00050E08101E3DE8C011801103009F4003096
:1004E00009F404C0032F0150302FE0CF2196CDBF77
:0804F000DEBFDF91CF910895FA
:10029C00C801BA01AA1BBB1B51E107C0AA1FBB1F97
:1002AC00A617B70710F0A61BB70B881F991F5A95F6
:0802BC00A9F7809590950895C3
:10084E0060E070E09101A10100C0F9010081003269
:10085E0021F4B62FB72B09F40AC061E070E0F9015C
:10086E000081FA0100838A010F5F1F4FA801F90171
:10087E0089010F5F1F4F98010081003031F7810110
:02088E000895CB
:0A11FE0005900D920197E1F70895A6
:10142A00A0E6B0E0EAE1F3E183ED90E00E94FF0874
:02143A00089513
:1013ED00AC00B100B600A70098009D00A200CF0090
:1013FD00D400D900CA00BB000D0130012B0135010D
:10140D003F013A01170112011C0126012101DE00E5
:08141D007C02F6017B01FE01D7
:04142500A08601009C
:10131A002D2D2D2D2D2D2D2D2D2D2D2D2D2D2D2DF3
:0B132A002D2D2D2D2D2D2D2D2D2D00F6
:10133500202054656D706572617475726520262074
:0B13450048756D696469747920200010
:101350002D2D2D2D2D2D2D2D2D2D2D2D2D2D2D2DBD
:0B1360002D2D2D2D2D2D2D2D2D2D00C0
:04136B00000000007E
:02136F002E004E
:0313710020250034
:1013740020202048756D69646974792020203A2002
:011384000068
:1013850020202054656D70657261747572653A2010
:011395000057
:101396002D2D2D2D2D2D2D2D2D2D2D2D2D2D2D2D77
:0B13A6002D2D2D2D2D2D2D2D2D2D007A
:1013B1002D2D2D2D2D2D2D2D2D2D2D2D2D2D2D2D5C
:0B13C1002D2D2D2D2D2D2D2D2D2D005F
:1013CC002020202020202044485432322032204338
:0B13DC006C69636B20202020202000A3
:0213E7002E00D6
:0413E90020B04300ED
:00000001FF
