:020000040800F2
:10000000FCFF0020D51F0000891E0000891E000093
:10001000891E0000891E0000891E0000891E000044
:10002000891E0000891E0000891E0000891E000034
:10003000891E0000891E0000891E0000891E000024
:10004000891E0000891E0000891E0000891E000014
:10005000891E0000891E0000891E0000891E000004
:10006000891E0000891E0000891E0000891E0000F4
:10007000891E0000891E0000891E0000891E0000E4
:10008000891E0000891E0000891E0000891E0000D4
:10009000891E0000891E0000891E0000891E0000C4
:1000A000891E0000891E0000891E0000891E0000B4
:1000B000891E0000891E0000891E0000891E0000A4
:1000C000891E0000891E0000891E0000891E000094
:1000D000891E0000891E0000891E0000891E000084
:1000E000891E0000891E0000891E0000891E000074
:1000F000891E0000891E0000891E0000891E000064
:10010000891E0000891E0000891E0000891E000053
:10011000891E0000891E0000891E0000891E000043
:10012000891E0000891E0000891E0000891E000033
:10013000891E0000891E0000891E0000891E000023
:10014000891E0000891E0000891E0000891E000013
:1001500081B0194900EA0101084600220EE004209E
:1001600022E0082020E010201EE020201CE040209B
:100170001AE0802018E040F2001015E00F49884294
:10018000EDD00F498842ECD00E498842EBD00E49A1
:100190008842EAD00D498842E9D00D498842E8D02A
:1001A0000C498842E7D010460B49096841EA000231
:1001B00009490A6001B0704700FCFFFF00080140D8
:1001C000000C0140001001400014014000180140E3
:1001D000001C0140002001401810024081B0CDF801
:1001E00000E08CB21546774B00EA03031E46184622
:1001F000FFF7AEFFB4F1FF0F0CD1734B9D4203D15B
:100200004FF033333360D9E0422D03D14FF0443304
:100210003360D3E04FF6FF739C4214D16A4B9D428A
:1002200007D14FF033333360341D4FF03333236045
:10023000C4E0422D07D14FF044333360341D4FF0FA
:1002400044332360BAE00021002005F001030BB124
:1002500000211DE005F0020333B105F4C0730BB1BA
:10026000082100E0042113E005F0040333B105F098
:1002700020030BB1042100E0002109E005F0080390
:1002800033B105F020030BB10C2100E00821FFE79A
:100290004E4B05EA03030BB1032009E005F400739C
:1002A0000BB1022004E005F480630BB10120FFE7ED
:1002B00005F00C030BB10143FFE704F0FF039BB211
:1002C000002B3BD0376800201FFA84F832462E46B8
:1002D00008282CD24FF0010303FA00F408EA0403C3
:1002E000A34222D185004FF00F03AB40DB4307EA66
:1002F000030401FA05F344EA03031D4606F481737F
:10030000B3F5817F05D102F214044FF0010383405D
:10031000236006F08203822B05D102F210044FF015
:100320000103834023602F46FFE7401CD0E717609E
:100330001FFA88F00F463146164602E00F4629465E
:10034000A0B2B0F1FF0F39D9331DD3F800800022DD
:10035000082A30D202F208044FF0010303FA04F431
:1003600000EA0403A34224D195004FF00F03AB40F1
:10037000DB4308EA030807FA05F348EA030801F437
:100380008173B3F5817F07D106F2140502F20804E8
:100390004FF00103A3402B6001F08203822B07D1B1
:1003A00006F2100502F208044FF00103A3402B608F
:1003B000FFE7521CCCE7331DC3F80080DDF800E0F6
:1003C00001B0704700FCFFFF14000800000808009F
:1003D00081B000F218010A68C2F3400181F0010106
:1003E000C9B2C8B201B0704781B000F214010A6806
:1003F00000F218010968090442EA0101084601B047
:100400007047FFFF01490860704700BFA481224286
:1004100001490860704700BFA0812242014908607D
:10042000704700BF9401214201490860704700BF36
:100430009C81214201490860704700BF9881214298
:1004400001490860704700BFA88122420149086045
:10045000704700BFB481224201490860704700BF65
:100460008801224201490860704700BF9001214283
:1004700001490860704700BFA80122420149086095
:10048000704700BF8001214201490860704700BFEA
:10049000B001224201490860704700BFAC0122420E
:1004A00001490860704700BF9881214201490860F6
:1004B000704700BF9481224201490860704700BF25
:1004C0009881224281B0CDF800E00B46FFF78CFF07
:1004D00000EA03029A4240F2000200D10122D0B2A7
:1004E000DDF800E001B0704781B0CDF800E04FF0DA
:1004F00000021949884207D118490B6818490A684F
:1005000018490A601C460BE01749884207D1174971
:100510000B6817490A6813490A601C4600E0144634
:1005200014490C6003461846FFF752FF70B9114991
:10053000096851B12CB905200A4C2468A047002055
:1005400005E0611E08460446FFE7ECE70120DDF800
:1005500000E001B0704700BF00540040D000002010
:100560002C0100202801002000580040D400002069
:1005700030010020D800002001490860704700BF0A
:100580009C81214201490860704700BFB08122422E
:1005900001490860704700BFA80122420149086074
:1005A000704700BFB881224201490860704700BF10
:1005B0008C01224201490860704700BFB08122428D
:1005C00001490860704700BFB0012242014908603C
:1005D000704700BFAC01224201480068704700BF6D
:1005E0002401002083B0CDF800E000F0FF031A09D9
:1005F000104603F00F02134614E0194A02921FE05E
:10060000184A02921CE0184A029219E0174A029214
:1006100016E0174A029213E0164A029210E0164AB8
:1006200002920DE00028E8D00128E9D00228EAD0A3
:100630000328EBD00428ECD00528EDD00628EED016
:10064000012212B29A40ADF8042002980A46BDF881
:100650000410FFF7C3FDDDF800E003B0704700BFF2
:1006600000080140000C014000100140001401404E
:1006700000180140001C01400020014083B0CDF86B
:1006800000E003464FF0000026498B4206D1264980
:100690000C6826490A6826490A600BE025498B4206
:1006A00007D12549086825490A6821490A60044696
:1006B00000E0044622490C60019402931846FFF7BB
:1006C00013FF029B019C10B94FF6FF7025E0012239
:1006D000196862F30821196003F214010A68C2F371
:1006E000402111B14FF6FF7017E025461C46154911
:1006F0002046FFF7E7FE78B91149096859B135B9C5
:1007000006200B4C2468A0474FF6FF7005E0691ED9
:1007100008460546FFE7EAE70020DDF800E003B001
:10072000704700BF00540040D00000202C01002082
:100730002801002000580040D40000203001002093
:10074000D80000200100030082B0CDF800E0CFB255
:1007500001469846029B4FF000064FF00005C44C3E
:10076000A14207D1C34CD4F80090C34C2568C34CB8
:1007700025600BE0C24CA14207D1C24C2068C24C9C
:100780002568BE4C2560814600E0A946BF4CC4F8F0
:100790000090F4E101F210057C00A4B244F00104E1
:1007A000A4B22C60019616464F46019A01F2140439
:1007B0002568C5F3400464B9B44C246844B127B932
:1007C0000320AE4C2468A047E2E1781E0746FFE70D
:1007D000ECE700250C6865F38A240C6001F2140430
:1007E000206800BF01F218042468240440EA0404CD
:1007F0002046012B05D101250C6865F349240C60C6
:1008000004E001250C6865F308240C609F4C256802
:100810009146984637460E469D493046FFF752FEB0
:1008200068B99A4C24684CB125B90320934C2468CC
:10083000A047ADE16C1E20460546FFE7ECE707EB5D
:10084000090506F2100424682C70B8F1010F13D1C9
:100850008E4C216830460568C5F340245CB98B4C4A
:1008600024683CB121B90320844C2468A0478FE15F
:10087000491EFFE7EFE712E0844C21683046056827
:10088000C5F300245CB9814C24683CB121B9032034
:100890007A4C2468A0477BE1491EFFE7EFE777E148
:1008A00001250C6865F38A240C6001250C6865F34A
:1008B000CB240C6001F210057C00A4B244F00104CA
:1008C000A4B22C604F4601F214042568C5F340041D
:1008D00064B96E4C246844B127B90320674C24687E
:1008E000A04755E1781E0746FFE7ECE701F2140444
:1008F000206800BF01F21804246824042043002566
:100900000C6865F38A240C60604C276801F21404BB
:100910002568C5F3800464B95C4C246844B127B9E8
:100920000320564C2468A04732E1781E0746FFE7B3
:10093000ECE7012B05D101250C6865F349240C6017
:1009400004E001250C6865F308240C60951901F298
:10095000100424682C70741C151901F2100424680A
:100960002C70012B14D1494C22680D68C5F340242A
:1009700064B9464C246844B122B903203F4C246832
:10098000A04705E1501E0246FFE7EEE7084613E0E8
:100990003E4C22680D68C5F3002464B93B4C2468C2
:1009A00044B122B90320354C2468A047F0E0501E22
:1009B0000246FFE7EEE708460025046865F3CB240E
:1009C0000460E5E001250C6865F38A240C6001F2FF
:1009D00010057C00A4B244F00104A4B22C60464689
:1009E000C846894617461D462A494846FFF76AFD0C
:1009F00078B9264C24685CB1B8F1000F04D103200B
:100A00001E4C2468A047C3E0A8F101008046FFE720
:100A1000EAE70021A8464A46B1463B46A9F103044D
:100A2000A14222D2194C25688A4617461E4618490B
:100A30003846FFF747FD60B9144C246844B125B926
:100A400003200E4C2468A047A2E0681E0546FFE77D
:100A5000EDE706EB0A0507F2100424682C700AF192
:100A60000104214633463A46D8E7084C00F014B852
:100A700000540040D00000202C010020280100205C
:100A800000580040D400002030010020D800002091
:100A90004000030002000300276801930B4616463E
:100AA0004246019906F214042568C5F3800464B92E
:100AB000394C246844B127B90320384C2468A04736
:100AC00066E0781E0746FFE7ECE70025346865F32B
:100AD0008A243460CD1806F2100424682C70581C47
:100AE0002D4C23681746024606F214042568C5F308
:100AF000800464B9284C246844B123B90320274CEE
:100B00002468A04744E0581E0346FFE7ECE7012FA6
:100B100007D10125346865F3492434601046324614
:100B200021E00125346865F3082434601A4CD4F8B8
:100B3000008017460D461A493046FFF7C3FC78B9C6
:100B4000154C24685CB1B8F1000F04D10320134C9C
:100B50002468A0471CE0A8F101008046FFE7EAE70F
:100B60002946324638460D1802F2100424682C70CB
:100B7000441C0D1902F2100424682C7008E0B8F12E
:100B8000010F3FF407AEB8F1020F3FF489AE19E749
:100B9000DDF800E002B07047D800002028010020F6
:100BA0000100030082B0CDF800E0029E4FF0000586
:100BB000564CA04206D1564C2768564C2568564CD8
:100BC00025600AE0554CA04206D1554C2768554C8B
:100BD0002568514C256000E02F46534C276000F2F9
:100BE00010054C00A4B22C60B94607469046354625
:100BF0001E464E493846FFF765FC88B94A4C2468C2
:100C00006CB1B9F1000F06D10420434C2468A04711
:100C10004FF6FF7076E0A9F101008146FFE7E8E7B3
:100C20000020019729463746019E7C1EA04226D20D
:100C300006F2100508EB000424782C603A4CD4F836
:100C4000009082460D463A493046FFF73BFC88B992
:100C5000354C24686CB1B9F1000F06D104202E4C3C
:100C60002468A0474FF6FF704CE0A9F101008146CF
:100C7000FFE7E8E70AF1010420462946D5E706F236
:100C8000100508EB000424782C60274C27680D46DB
:100C900028493046FFF716FC70B9234C246854B13C
:100CA00037B904201C4C2468A0474FF6FF7029E098
:100CB000781E0746FFE7EBE7012D05D101253468D3
:100CC00065F3492434601CE00125346865F3082489
:100CD0003460154C2768354617492846FFF7F2FB64
:100CE00078B9114C24685CB137B904200A4C2468E7
:100CF000A0474FF6FF7005E07C1E20460746FFE741
:100D0000EAE70020DDF800E002B070470054004040
:100D1000D00000202C0100202801002000580040B5
:100D2000D400002030010020D800002082000700FD
:100D300080000700840007000100030081B0CDF8A7
:100D400000E0012252B23E490A6000F268010B68DD
:100D50006FF0006103EA0102144603F00061C90E5E
:100D60000B4602F00041B1F1004F02D135490A684B
:100D700001E035490A6804F47021090C0E464FF66B
:100D8000FF7104EA01010D4604F44011B1F5401F62
:100D90000DD16FF0706102EA01010E462A490A681E
:100DA0006FF070610A4028490A60324616E004F488
:100DB0008011B1F5801F09D14FF00301B140C94343
:100DC00002EA010141F070610A4607E0610D090184
:100DD00005FA01F1C9430A4042F070622BB1610D7E
:100DE000090105FA01F10A43FFE704F00041B1F1FE
:100DF000004F02D113490A6001E013490A6040F232
:100E0000000A81464FEA8A0109EB01010968B1F144
:100E1000FF3F10D009F134014FEA8A03C91809686D
:100E20000A4609EB0301096808461146FFF7DAFB99
:100E30000AF1010AE6E7DDF800E001B0704700BF03
:100E4000000342421C0001400400014082B0CDF882
:100E500000E0034619460191FFF7BEFB40F2E8317E
:100E600000FB01F201990A601F490978C1F30311DF
:100E7000C8B21E4909180878C0B21A1D1968C140C5
:100E8000116019490988C1F3022188B2174909186C
:100E90000878C0B203F20802191D0968C140116048
:100EA00011490988C1F3C22188B21049091808788C
:100EB000C0B203F20C02191D0968C14011600A4951
:100EC0000988C1F3813188B2094909180978C8B283
:100ED00003F2100203F20C010968B1FBF0F111609A
:100EE000DDF800E002B0704704100240D422000098
:100EF000641D000081B00268C2F3401101B9FAE735
:100F0000011D096888B201B07047FFFF81B0016818
:100F1000C1F3801001B0704781B00168C1F3401087
:100F200001B0704781B0CDF800E00348FFF7EEFF55
:100F3000DDF800E001B070470038014081B0CDF825
:100F400000E00348FFF7E2FFDDF800E001B0704782
:100F5000004C004088B0CDF800E00E46554B98425A
:100F60000DD1012464B2544B1C60544C544B1C6092
:100F7000544C554B1C60554C554B1C600FE0554B69
:100F800098420CD1012464B2534B1C60534C4C4B1F
:100F90001C60534C4C4B1C60524C4D4B1C600196DA
:100FA00002901046FFF7CAFE0298019E031D1B68BF
:100FB0009CB26FF03F0304EA03039DB203AB0190C0
:100FC0001846FFF743FF0198059F059C464BB4FB6D
:100FD000F3F399B29BB245EA0304A4B2031D1C606B
:100FE0000024036864F30003036000223F4B9E4229
:100FF00012D87300B7FBF3F4A4B2042C02D204237A
:101000001C46FFE742EA04039AB200F220044B1C9C
:101010009BB2236091B23FE0032306FB03F4B7FBCE
:10102000F4F31FFA83F8192306FB03F5B7FBF5F376
:101030001FFA83F908FB04F409FB05F33C1BFB1AB8
:101040009C4205D203237343B7FBF3F4A4B206E03A
:1010500019237343B7FBF3F4A4B244F4804440F67D
:10106000FF7304EA030313B944F00104FFE744F4F7
:1010700000439BB21A4392B200F2200540F22C13B7
:1010800001FB03F4A4B240F2E833B4FBF3F39BB2E8
:101090005B1C9BB22B6091B200F21C031960002311
:1010A00003600124036864F300030360DDF800E0DB
:1010B00008B0704700540040D403424211120000AF
:1010C00034010020291200003801002071120000B4
:1010D0003C01002000580040D80342426911000042
:1010E000D91400004D12000040420F00A0860100FC
:1010F00081B0CDF800E00348FFF7FCFEDDF800E02A
:1011000001B070470044004081B0CDF800E00348D2
:10111000FFF7F0FEDDF800E001B07047004C004042
:1011200081B0CDF800E00348FFF7F6FEDDF800E0FF
:1011300001B07047004C004081B0CDF800E003489A
:10114000FFF7EAFEDDF800E001B070470044004020
:1011500081B0CDF800E00348FFF7D8FEDDF800E0ED
:1011600001B070470044004081B0CDF800E0034872
:10117000FFF784FADDF800E001B070470058004046
:1011800081B0CDF800E00348FFF7B4FEDDF800E0E1
:1011900001B070470038014081B0CDF800E003484D
:1011A000FFF7B4FEDDF800E001B0704700480040F2
:1011B00081B0CDF800E00348FFF7AEFEDDF800E0B7
:1011C00001B070470038014081B0CDF800E003481D
:1011D000FFF790FEDDF800E001B0704700480040E6
:1011E00081B0CDF800E00348FFF796FEDDF800E09F
:1011F00001B070470048004081B0CDF800E00348DE
:10120000FFF784FEDDF800E001B0704700500040B9
:1012100081B0CDF800E00348FFF730FADDF800E0D8
:1012200001B070470054004081B0CDF800E008B430
:1012300013460A46C1B20448FFF786FA01B0DDF84A
:1012400000E001B0704700BF0054004081B0CDF80D
:1012500000E008B413460A46C1B20448FFF7A2FCF6
:1012600001B0DDF800E001B0704700BF0058004059
:1012700081B0CDF800E008B413460A46C1B2044874
:10128000FFF790FC01B0DDF800E001B0704700BF4F
:101290000054004089B0CDF800E0834698B28C46F7
:1012A000BDF824100A9E04ACADF80410ADF8080097
:1012B0002046FFF7CBFDBDF80800BDF80410644CD4
:1012C000A34512D101256DB2624C2560624D634C7D
:1012D0002560634D634C2560634D644C2560644D0F
:1012E000644C2560079C039456E0634CA34512D1DF
:1012F00001256DB2614C2560614D584C2560614DF2
:10130000584C2560604D594C2560604D594C256006
:10131000069C039440E05E4CA34512D101256DB2BA
:101320005C4C25605C4D4D4C25605C4D4D4C256002
:101330005B4D4E4C25605B4D4E4C2560069C0394E6
:101340002AE0594CA34512D101256DB2574C2560B6
:10135000574D424C2560574D424C2560564D434CED
:101360002560564D434C2560069C039414E0544C74
:10137000A34511D101256DB2524C2560524D374C19
:101380002560524D374C2560514D384C2560514DEC
:10139000384C2560069C0394ADF80410ADF80800A5
:1013A0003046FFF7CBFCBDF80800BDF804100BF188
:1013B000100500242C600BF110052C680C432C60E8
:1013C0000BF10C0500242C6018B140F4806080B251
:1013D000FFE70BF10C052C6804432C600BF10C06A5
:1013E0000125346865F34D3434600BF10C0601259A
:1013F000346865F3C30434600BF10C0601253468CE
:1014000065F3820434600BF1140500242C60039D05
:10141000192465434FEA8C04B5FBF4F76424B7FB49
:10142000F4F42601350964246C433C1B240104F2C6
:1014300032056424B5FBF4F404F00F0446EA040416
:101440000BF10805A4B22C60DDF800E009B070478C
:101450000038014038034242D51500004001002009
:101460008111000044010020B1110000480100205A
:10147000250F00004C01002000440040C4034242FC
:10148000B9150000F11000003911000051110000E1
:1014900000480040C80342420D160000C911000078
:1014A000E111000099110000004C0040CC034242C1
:1014B000F115000009110000211100003D0F00008E
:1014C00000500040D00342429D150000FD14000072
:1014D00015150000F911000081B0CDF800E008B446
:1014E00013460A46C1B20448FFF72EF901B0DDF8F1
:1014F00000E001B0704700BF0058004081B0CDF857
:1015000000E00348FFF7F6FCDDF800E001B07047AB
:101510000050004081B0CDF800E00348FFF7FCFC2C
:10152000DDF800E001B070470050004081B0ADF838
:1015300000100146BDF800000B68C3F3C01202B9E9
:10154000FAE70A1D106001B07047FFFFCAB20146FA
:101550004FF6FF700C46D1B2CBB2491EC9B2E3B10F
:101560002278504080B2621C002485B21046082CBC
:1015700010D205F0010292B232B16D08ADB24AF25A
:1015800001025540ADB202E06A0893B29DB2641CFC
:10159000E4B2ECE70446A8B2DEE7704781B0CDF8CC
:1015A00000E081B20348FFF7C1FFDDF800E001B0C1
:1015B000704700BF0050004081B0CDF800E081B21C
:1015C0000348FFF7B3FFDDF800E001B0704700BF4C
:1015D0000044004081B0CDF800E081B20348FFF73D
:1015E000A5FFDDF800E001B0704700BF0038014002
:1015F00081B0CDF800E081B20348FFF797FFDDF836
:1016000000E001B0704700BF004C004081B0CDF851
:1016100000E081B20348FFF789FFDDF800E001B088
:10162000704700BF0048004081B0CDF800E0019D48
:101630002C4610B408B493B28AB201460348FFF7AF
:1016400029FE02B0DDF800E001B07047003801402B
:1016500082B0CDF800E040F20004ADF80440054C43
:101660002468A047BDF90440044320B2DDF800E03F
:1016700002B070471C01002081B0CDF800E0019D50
:101680002C4610B408B493B28AB201460348FFF75F
:1016900001FE02B0DDF800E001B0704700480040F4
:1016A00081B0CDF800E0019D2C4610B408B493B28F
:1016B0008AB201460348FFF7EDFD02B0DDF800E015
:1016C00001B070470044004081B00A4681B200205A
:1016D0008DB21146052805D20B1820221A70401C25
:1016E000C0B2F7E70B1800221A70401EC0B20C18E7
:1016F0000A23B5FBF3F203FB125292B2303222708E
:101700000A22B5FBF2F292B295B202B902E0401E93
:10171000C0B2ECE701B0704782B0CDF800E040F213
:101720000004ADF80440064C2468A047BDF904103D
:1017300041EA000000B2DDF800E002B0704700BFEF
:101740001801002081B0CDF800E00A4601460348A8
:10175000FFF700FCDDF800E001B0704700540040E6
:1017600082B0CDF800E040F20004ADF80440044C33
:101770002468A047BDF90400DDF800E002B070471E
:101780002001002081B0CDF800E0094902B440F208
:10179000000340F2000240F20001FFF781FF01B0B8
:1017A000044A05490A600020DDF800E001B07047F6
:1017B000C4200000B91500001401002081B00146CA
:1017C00040F200052DB208460C460B46FFE70178B3
:1017D000202901D105B904E001252DB2017821703D
:1017E000641C0246401C11780029F0D1184601B053
:1017F0007047FFFF81B0CDF800E0094902B440F224
:10180000000340F2000240F20001FFF749FF01B07F
:10181000044A05490A600020DDF800E001B0704785
:10182000C4200000B91500001401002081B0CDF8DB
:1018300000E0094902B440F2000340F2000240F225
:101840000001FFF7F1FE01B0044A05490A600020DB
:10185000DDF800E001B0704730210000D515000030
:101860001401002081B0CDF800E00178CCB2A0B224
:10187000034C2468A0470020DDF800E001B0704769
:101880001401002085B0CDF800E000218DF8101083
:1018900000218DF8111001AA03211170511C08704C
:1018A000921C02211170FFF737FF04AA2B49097817
:1018B0000123C8B211460022FFF7CAFEFFF72CFF32
:1018C00001AA264909780123C8B211460322FFF76D
:1018D000BFFE58B1FFF720FF04AA20490978012371
:1018E000C8B211460022FFF7B3FE26E0FFF714FF4F
:1018F0000DF10702194909780123C8B211460622E1
:10190000FFF72EFF0DF10703591D0978ADF80E10F2
:10191000BDF80E100A0292B2ADF80E20191D09781A
:1019200042EA0101ADF80E1004211846FFF70EFE41
:10193000BDF80E10884200D100E0B4E70DF10703B6
:10194000991C0978C8B2020292B2D91C097842EAFD
:10195000010188B2DDF800E005B07047CF0000203B
:10196000026806490A60011D0A6805490A6000F21A
:1019700008010A6803490A60704700BF1801002087
:101980001C010020200100207047FFFF81B0CDF82E
:1019900000E0016808460449FFF7D4FE0020DDF8A6
:1019A00000E001B0704700BF9C21000081B0CDF87D
:1019B00000E00E46002183B2002805DA01214042F2
:1019C00080B280B28FB201E098B28FB23146FFF799
:1019D0007BFE06213446B8B2002908D963184A1E96
:1019E00092B2A21812781A70491E89B2F4E7202226
:1019F000227070B1002081B2204642181278202A4D
:101A000002D1491C89B2F8E74A1E92B283182D22EE
:101A10001A70DDF800E001B07047FFFF81B0CDF82B
:101A200000E0016808460449FFF78CFE0020DDF85D
:101A300000E001B0704700BF9C21000081B0CDF8EC
:101A400000E0094902B440F2000340F2000240F213
:101A50000001FFF711FE01B0044A05490A600020A9
:101A6000DDF800E001B07047082200000D1600000C
:101A70001401002081B0CDF800E03248012100F0CF
:101A8000CBF8314801880A20B1FBF0F02F4900B2B1
:101A9000FFF78CFF2D48FFF791FE01212B4800F046
:101AA000BBF82B48012100F0B7F8274802880A212B
:101AB000B2FBF1F001FB1020244900B2FFF776FFE2
:101AC0002248FFF77BFE0121204800F0A5F82148BD
:101AD000022100F0A1F82048012100F09DF81F48E4
:101AE00001880A20B1FBF0F0184900B2FFF75EFF51
:101AF0001648FFF763FE0121144800F08DF81848DE
:101B0000012100F089F8154802880A21B2FBF1F0A2
:101B100001FB10200D4900B2FFF748FF0B48FFF70B
:101B20004DFE0121094800F077F80E48022100F02F
:101B300073F80D48022100F06FF8DDF800E001B005
:101B4000704700BF87000020DE000020E00000207A
:101B5000980000209A0000209D000020DC0000205A
:101B6000AE000020B0000020B400002081B0CDF80D
:101B700000E00020FFF786FEDDF800E001B07047CE
:101B800041F6FF27C0F2B7077F1EFDD100BF00BF9F
:101B900000BF00BF00BF704781B0CDF800E0022059
:101BA000FFF770FEDDF800E001B0704781B0CDF8BE
:101BB00000E00446054B1A700846FFF7D1FE2046A8
:101BC000FFF7E2FEDDF800E001B07047CF00002033
:101BD00081B0CDF800E011E00846FFF72FFF16E0D6
:101BE0000846FFF707FE12E00846FFF71FFE0EE06B
:101BF0000846FFF7C7FD0AE0012008E00028EBD007
:101C00000128EDD02028EFD03028F1D0F4E7DDF81E
:101C100000E001B07047FFFF83B0CDF800E002465E
:101C200010460D228DF808200A228DF809201FE0A9
:101C3000FFF718FE23E002782AB10190FFF712FEA9
:101C40000198401CF7E71AE002782AB10190FFF7EB
:101C500009FE0198401CF7E702AA1046FFF702FEB2
:101C60000DF109021046FFF7FDFD08E0062007E030
:101C70000029DDD00129DED00229E5D0F6E70020D9
:101C8000DDF800E003B0704781B0CDF800E08B468E
:101C900009E05846FFF77AFE0AE05846FFF7BEFE15
:101CA00006E0012004E00028F3D00128F5D0F8E791
:101CB000DDF800E001B0704781B01548006840F0E1
:101CC000010113480160134913480160104801687D
:101CD000124801400E4801600D4801686FF48020F1
:101CE00001400B4801600C4801686FF4FE000140A0
:101CF00009480160064801686FF0A050014004489F
:101D000001604FF000010648016001B0704700BF5C
:101D1000001002400000FFF004100240FFFFF6FE3A
:101D20002C100240A086010081B0CDF800E00C48E4
:101D300001460020FFF7A8FF42F280512020FFF764
:101D400047FF44F67F77C0F212077F1EFDD100BF28
:101D500000BF00BF00BF00BFDDF800E001B070476A
:101D6000241D00000204060881B0CDF800E05C22CA
:101D700013491448FFF71AFF48F67F57C0F25B0774
:101D80007F1EFDD100BF00BF00BF00BF00BF0E48D7
:101D90000221FFF741FF0D480221FFF73DFF0C48EC
:101DA0000221FFF739FF0B480221FFF735FF0A48F0
:101DB0000221FFF731FFDDF800E001B0704700BFFE
:101DC000F022000074220000000000201B00002010
:101DD00036000020510000206C000020FFFFFFFFB4
:101DE00081B0CDF800E0FFF7D7FE0C490880FFF77F
:101DF000C7FEFFF7BBFE0A490880FFF73BFE48F22B
:101E0000FF67C0F2933700BF00BF7F1EFDD100BF48
:101E100000BF00BFDDF800E001B07047DC0000202B
:101E2000DE00002081B01CF8019B0BF8019BBBEB8E
:101E30000A0FF8D101B0704781B04FF000094FF0A0
:101E4000000CBDEB0A0F04DCBDEB0B0F01DBD4462D
:101E5000EA464BF8049BBBEB0A0FFAD1BCEB0A0F26
:101E600005DDE246D9F800B00BF1040BF1E701B053
:101E70007047FFFF81B002490248016001B070471E
:101E8000401901002401002081B0FEE701B0704735
:101E900081B0CDF800E0464A464B474C47494BF6E7
:101EA0008030814206D94648006840F0020144482B
:101EB000016011E045F6C050814206D940480068F3
:101EC00040F001013E48016006E03D4801686FF0C6
:101ED000070001403A480160FFF7EEFE3948036011
:101EE00039480460394802EA00013948016002F0CB
:101EF000010040B119463648006800F00200002891
:101F000000D1F8E700E0194602F4803040B10B46FA
:101F10002F48006800F40030002800D1F8E700E006
:101F20000B4602F0805068B12948006840F08051AB
:101F3000274801602648006800F00050002800D1C2
:101F4000F8E7FFE702F0806078B12148006840F0D0
:101F500080611F48016011461A461D48006800F064
:101F60000060002800D1F8E701E011461A4601F0B0
:101F7000807070B11648006840F0807114480160AC
:101F800011461348006800F0007000B9F9E70A46EE
:101F9000FFE70C48006800F00C01900000F00C0016
:101FA000814200D0F5E7DDF800E001B0704700BFE6
:101FB0008100010502841D00440601004019010052
:101FC00000200240041002402C100240FFFF0F00CE
:101FD00000100240FFF75CFF00F0DEF9FFF74AFF58
:101FE00000F08CF9FFF7A0FEFFF7BEFEFFF7F8FE4A
:101FF000FCE7FEE72D2D2D2D2D2D2D2D2D2D2D2DFD
:102000002D2D2D2D2D2D2D2D2D2D2D2D2D2D00203A
:102010002020202020204448543232203220436C9B
:1020200069636B202020202020002D2D2D2D2D2DAB
:102030002D2D2D2D2D2D2D2D2D2D2D2D2D2D2D2DD0
:102040002D2D2D2D00202054656D706572617475E5
:10205000726520262048756D6964697479202000B6
:102060002D2D2D2D2D2D2D2D2D2D2D2D2D2D2D2DA0
:102070002D2D2D2D2D2D2D2D2D2D00202020487581
:102080006D69646974792020203A20002E00202593
:102090000020202054656D70657261747572653A18
:1020A00020002E0020B043002D2D2D2D2D2D2D2D67
:1020B0002D2D2D2D2D2D2D2D2D2D2D2D2D2D2D2D50
:1020C0002D2D00FF3500000036000000FFFFFFFF50
:1020D0000000000000000000000000000000000000
:1020E00000000000000000000000000000000000F0
:1020F00000000000000000001808000018000000A8
:1021000000000000000000000000000000000000CF
:1021100000000000000000000000000000000000BF
:10212000000000000000000000000000080000089F
:10213000090000000A000000FFFFFFFF0000000090
:10214000000000000000000000000000000000008F
:10215000000000000000000000000000000000007F
:102160000000000018080000180000000000000037
:10217000000000000000000000000000000000005F
:10218000000000000000000000000000000000004F
:102190000000000000000000040000001600000025
:1021A00017000000FFFFFFFF00000000000000001C
:1021B000000000000000000000000000000000001F
:1021C000000000000000000000000000000000000F
:1021D000280800002808000000000000000000009F
:1021E00000000000000000000000000000000000EF
:1021F00000000000000000000000000000000000DF
:10220000000000000200000038000000390000005B
:10221000FFFFFFFF000000000000000000000000C2
:1022200000000000000000000000000000000000AE
:10223000000000000000000000000000180800007E
:102240001800000000000000000000000000000076
:10225000000000000000000000000000000000007E
:10226000000000000000000000000000000000006E
:102270003000140865040000590400004D040000FB
:102280007104000095040000890400007D04000032
:1022900041040000050400001104000035040000A2
:1022A00029040000FFFFFFFFFFFFFFFFFFFFFFFF0D
:1022B000FFFFFFFFFFFFFFFFFFFFFFFFFFFFFFFF2E
:1022C000FFFFFFFFFFFFFFFFFFFFFFFFFFFFFFFF1E
:1022D000FFFFFFFF000000000102030401020304EE
:1022E00006070809000000000000000000000000D0
:1022F00011120000711200002912000000B5DFF871
:1023000024B0DFF824A0DFF824C0FFF78BFDDFF84E
:1023100020B0DFF820A0DFF820C0FFF783FD00BD6C
:10232000704700BF00000020CF000020F41F000015
:10233000D0000020DC000020E4220000FFFFFFFFAF
:10234000FFFFFFFFFFFFFFFFFFFFFFFFFFFFFFFF9D
:10235000FFFFFFFFFFFFFFFFFFFFFFFFFFFFFFFF8D
:10236000FFFFFFFFFFFFFFFFFFFFFFFFFFFFFFFF7D
:10237000FFFFFFFFFFFFFFFFFFFFFFFFFFFFFFFF6D
:10238000FFFFFFFFFFFFFFFFFFFFFFFFFFFFFFFF5D
:10239000FFFFFFFFFFFFFFFF00B5DFF810B0DFF822
:1023A00010A0FFF749FD00BD704700BF00000020EE
:1023B00050010020FFFFFFFFFFFFFFFFFFFFFFFFB8
:00000001FF
