:10000000FCFF0320F9240000DD240000DD240000B3
:10001000DD240000DD240000DD240000DD240000DC
:10002000DD240000DD240000DD240000DD240000CC
:10003000DD240000DD240000DD240000DD240000BC
:10004000DD240000DD240000DD240000DD240000AC
:10005000DD240000DD240000DD240000DD2400009C
:10006000DD240000DD240000DD240000DD2400008C
:10007000DD240000DD240000DD240000DD2400007C
:10008000DD240000DD240000DD240000DD2400006C
:10009000DD240000DD240000DD240000DD2400005C
:1000A000DD240000DD240000DD240000DD2400004C
:1000B000DD240000DD240000DD240000DD2400003C
:1000C000DD240000DD240000DD240000DD2400002C
:1000D000DD240000DD240000DD240000DD2400001C
:1000E000DD240000DD240000DD240000DD2400000C
:1000F000DD240000DD240000DD240000DD240000FC
:10010000DD240000DD240000DD240000DD240000EB
:10011000DD240000DD240000DD240000DD240000DB
:10012000DD240000DD240000DD240000DD240000CB
:10013000DD240000DD240000DD240000DD240000BB
:10014000DD240000DD240000DD240000DD240000AB
:10015000DD240000DD240000DD240000DD2400009B
:10016000DD240000DD240000DD240000DD2400008B
:10017000DD240000DD240000DD240000DD2400007B
:10018000DD240000DD240000DD240000DD2400006B
:10019000DD240000DD240000DD240000DD2400005B
:1001A000DD240000DD240000DD240000DD2400004B
:1001B000DD240000DD240000DD240000DD2400003B
:1001C000DD240000DD240000DD240000DD2400002B
:1001D000DD240000DD240000DD240000DD2400001B
:1001E000DD240000DD240000DD240000DD2400000B
:1001F000DD240000DD240000DD240000DD240000FB
:08020000DD240000DD240000F4
:1024F80000F010F8FFF7D8FF00F05EFBFFF7EEFFE3
:1025080000F00CFBFFF734FFFFF7F8FEFFF750FF72
:04251800FCE7FEE7F7
:10249C0081B01CF8019B0BF8019BBBEB0A0FF8D128
:0424AC0001B07047C4
:1024600081B04FF000094FF0000CBDEB0A0F04DC07
:10247000BDEB0B0F01DBD446EA464BF8049BBBEBEC
:102480000A0FFAD1BCEB0A0F05DDE246D9F800B01D
:0A2490000BF1040BF1E701B07047F7
:1023780081B0CDF800E00C4801460020FFF72CFEA4
:1023880042F280512020FFF795FF40F6FE07C0F289
:102398003D077F1EFDD100BF00BF00BF00BF00BFCB
:0C23A800DDF800E001B0704714050000F3
:101FE00081B0CDF800E009E00846FFF745FF0AE0C0
:101FF0000846FFF777FF06E0012004E00028F3D051
:0E2000000128F5D0F8E7DDF800E001B07047E8
:101E780081B0CDF800E0016808460449FFF772FD1B
:101E88000020DDF800E001B0704700BFE028000046
:10196C0081B0CDF800E00A4601460348FFF77AFC47
:0C197C00DDF800E001B070470000024000
:1012700083B0CDF800E001920A46014601985C4B2C
:10128000994216D100245B4B1C60012464B25A4B76
:101290001C605A4C5A4B1C605A4C5B4B1C605B4C9C
:1012A0005B4B1C605B4C5C4B1C605C4C5C4B1C6087
:1012B00065E15C4B994216D100245B4B1C60012414
:1012C00064B25A4B1C605A4C4D4B1C60594C4E4BEF
:1012D0001C60594C4E4B1C60584C4F4B1C60584C7A
:1012E0004F4B1C604BE1574B994216D10024564B93
:1012F0001C60012464B2554B1C60554C404B1C6073
:10130000544C414B1C60544C414B1C60534C424B61
:101310001C60534C424B1C6031E1524B994216D138
:101320000024514B1C60012464B2504B1C60504C93
:10133000334B1C604F4C344B1C604F4C344B1C6087
:101340004E4C354B1C604E4C354B1C6017E14D4BE1
:10135000994216D100244C4B1C60012464B24B4BC3
:101360001C604B4C264B1C604A4C274B1C604A4C63
:10137000274B1C60494C284B1C60494C284B1C6077
:10138000FDE0484B994216D10024474B1C600124D4
:1013900064B2464B1C60464C194B1C60454C1A4BC2
:1013A0001C60454C1A4B1C60444C1B4B1C60444C4D
:1013B0001B4B1C60E3E0434B994216D10024424B87
:1013C0001C60012464B2414B1C60414C0C4B1C60FE
:1013D000404C0D4B1C60404C0D4B1C603F4C0E4B69
:1013E0001C603F4C0E4B1C60C9E03E4B99427BE0B9
:1013F00000000240D400002000C4FC43FFFFFFFFB8
:1014000074010020B116000078010020790F00005F
:101410007C0100203911000080010020FFFFFFFF48
:101420008401002000100240D800002004C4FC43C6
:10143000FFFFFFFF051700007111000055110000AC
:10144000FFFFFFFF00200240DC00002008C4FC4337
:10145000FFFFFFFFE9160000E51000007510000017
:10146000FFFFFFFF00300240E00000200CC4FC43FF
:10147000FFFFFFFFCD16000001110000B10F0000BB
:10148000FFFFFFFF00000C40E400002010C4FC43FD
:10149000FFFFFFFF211700001D1100005D0F00007E
:1014A000FFFFFFFF00100C40E800002014C4FC43C5
:1014B000FFFFFFFF75170000911000003D100000B6
:1014C000FFFFFFFF00200C40EC00002018C4FC438D
:1014D000FFFFFFFF59170000AD100000591000007A
:1014E000FFFFFFFF00300C4016D10024414B1C6071
:1014F000012464B2404B1C60404C414B1C60414C89
:10150000414B1C60414C424B1C60424C424B1C60A6
:10151000424C434B1C6032E0424B994216D10024AE
:10152000414B1C60012464B2404B1C60404C344B66
:101530001C60404C344B1C603F4C354B1C603F4C96
:10154000354B1C603E4C364B1C6018E03D4B9942BD
:1015500015D100243C4B1C60012464B23B4B1C6041
:101560003B4C274B1C603B4C274B1C603A4C284B98
:101570001C603A4C284B1C60394C294B1C60019272
:101580000291FFF79FFB0299019A01F220041023B8
:101590002360344B9A4207D106260D1D01242B6887
:1015A00064F304132B6006E014260D1D00242B6841
:1015B00064F304132B60FFF7CFFB40F2E83300FB2A
:1015C00003F506FB02F4B5FBF4F318466343EB1A8C
:1015D0000BB9401EFFE77F2801D97F20FFE70128D4
:1015E00001D20120FFE701F20C031860DDF800E0F2
:1015F00003B07047F00000201CC4FC43FFFFFFFF56
:10160000740100203D17000078010020C91000007F
:101610007C0100202110000080010020FFFFFFFF5F
:101620008401002000800B40F400002020C4FC4313
:10163000FFFFFFFF950F00008D110000E90F000074
:10164000FFFFFFFF00900B40F800002024C4FC4384
:10165000FFFFFFFFCD0F0000A911000005100000E3
:08166000FFFFFFFFD0CF3200B5
:100CC40081B0CDF800E040F2000B82460AF1D80171
:100CD40009788B4539D20C210BFB01F10AEB010198
:100CE4008C460CF108010978A9B90CF108010978BE
:100CF400CCB20CF1060109888BB20CF1040109781D
:100D0400CAB2DCF800100846D1B2002210B4FFF7D2
:100D14000DFC01B014E00CF108010978CCB20CF11F
:100D2400060109888BB20CF104010978CAB2DCF817
:100D340000100846D1B20F2210B4FFF7F7FB01B040
:100D44000BF1010B5FFA8BFBC0E7DDF800E001B0AB
:020D54007047E6
:1005300082B0CDF800E05FFA81F8D5B29FB29DF8A5
:100540000830F54C00EA0404A1462046FFF75CFEA3
:10055000F24CA54208D109F580666FEA0805EDB2B4
:1005600034682C40346008E0ED4CA54205D109F513
:1005700080652C6844EA08042C6040F2010407EA14
:100580000404A4B234B109F5A2652C6844EA080455
:100590002C6007E009F5A2666FEA0805EDB2346841
:1005A0002C40346040F2020407EA0404A4B234B1DF
:1005B00009F214552C6844EA08042C6007E009F29B
:1005C00014566FEA0805EDB234682C40346040F2EE
:1005D000080407EA0404A4B234B109F20C552C68EB
:1005E00044EA08042C6007E009F20C566FEA08059B
:1005F000EDB234682C40346040F2100407EA040481
:10060000A4B234B109F5A0652C6844EA08042C6052
:1006100007E009F5A0666FEA0805EDB234682C40E2
:10062000346040F2200407EA0404A4B234B109F2B1
:1006300004552C6844EA08042C6007E009F20456CB
:100640006FEA0805EDB234682C40346040F2400493
:1006500007EA0404A4B234B109F5A1652C6844EAA0
:1006600008042C6007E009F5A1666FEA0805EDB201
:1006700034682C40346041F2000407EA0404A4B258
:10068000012C13D042F2000407EA0404A4B2012CA6
:100690000CD044F2000407EA0404A4B2012C05D0F3
:1006A000DEB24B46B8B25FFA88F53CE00020002687
:1006B000DAB2BBB207465FFA88F04946082E13D279
:1006C00020FA06F4E4B204F00104E4B24CB175007F
:1006D0002DB2032424B2AC4024B247EA04052F46CD
:1006E000FFE7761CF6B2E9E701F6C476FD4334680D
:1006F0002C40346001F23C56C543EDB234682C40C6
:10070000346001F5A166C543EDB234682C40346015
:1007100001F20456C543EDB234682C403460C5B2D2
:1007200098B20B46D6B2002141F2000400EA04045C
:10073000A4B23CB300220F46E9B2082A13D221FA30
:1007400002F4E4B204F00104E4B24CB155002DB25D
:10075000012424B2AC4024B247EA04052F46FFE747
:10076000521CD2B2E9E703F6C4752C683C432C60F6
:1007700003F5A1652C680C432C603D461F4683B2EF
:10078000C8B203E01F4683B2E8B20D4642F200044D
:1007900003EA0404A4B26CB30022A8463946082A2E
:1007A00013D220FA02F4E4B204F00104E4B24CB132
:1007B00055002DB2032424B2AC4024B248EA04050B
:1007C000A846FFE7521CD2B2E9E701F6C4752C68CF
:1007D00044EA08042C6001F23C552C6804432C6068
:1007E00001F5A1652C6804432C60F7B20E46C2B235
:1007F00098B205E00197C2B298B2F7B2A846019E3E
:1008000044F2000400EA0404A4B284B30023D1B289
:10081000082B14D221FA03F4E4B204F00104E4B288
:1008200054B15D002DB2032424B2AC4024B248EA96
:10083000040422469046FFE75B1CDBB2E8E706F6BD
:10084000C4752C6844EA08042C6006F23C552C68F8
:100850000C432C6006F5A1652C680C432C6006F255
:1008600004552C680C432C60FBB2324602E0D1B236
:100870003246FBB240F2800400EA0404A4B274B130
:1008800040F2400400EA0404A4B22CB102F5A365CE
:100890002C680C432C6001E00120FAE006E002F530
:1008A000A366CD43EDB234682C40346040F20014AE
:1008B00000EA0404A4B22CB102F21C552C680C43CB
:1008C0002C6006E002F21C56CD43EDB234682C4099
:1008D000346040F2002400EA0404A4B2002C3AD0B0
:1008E000104CA24240F2000500D001250E4CA2425D
:1008F00040F2000400D0012425400C4CA24240F2FA
:10090000000400D001242540094CA24240F200041A
:1009100000D0012425400DE000F0FFFF00000000A2
:100920000100000000C0054000B0054000900540F7
:1009300000100640594CA24240F2000400D00124AD
:1009400005EA04040CB10120A3E002F5A5652C68BA
:100950000C432C602AE0524CA24240F2000500D128
:100960000125504CA24240F2000400D1012425434D
:100970004D4CA24240F2000400D1012425434B4CCF
:10098000A24240F2000400D101242543434CA2427C
:1009900040F2000400D1012445EA040434B102F518
:1009A000A566CD43EDB234682C40346040F60004B7
:1009B00000EA0404A4B22CB102F5A6652C680C432D
:1009C0002C6006E002F5A666CD43EDB234682C40FB
:1009D000346040F2004400EA0404A4B22CB102F5F1
:1009E00084652C680C432C6006E002F58466CD43D8
:1009F000EDB234682C4034600BB9002049E00F2B75
:100A000001D9012045E0002700208DF80430C3B251
:100A100010469DF80420082B12D221FA03F4E4B208
:100A200004F00104E4B244B19D002DB24FF00F0474
:100A3000AC4047EA04052F46FFE75B1CDBB2EAE760
:100A400000F22C56FD4334682C403460002600230D
:100A50008DF80430CBB29DF80410082913D223FA84
:100A600001F4E4B204F00104E4B24CB1D5B28C005C
:100A700024B205FA04F446EA040425462E46FFE7AC
:100A8000491CC9B2E9E700F22C552C6834432C60AC
:100A90000020DDF800E002B0704700BF00500640C3
:100AA00000C0054000B00540009005400010064021
:1002080081B0664900EA010108467DE06449096851
:1002180041F0010262490A60BEE06149096841F0A3
:1002280002025F490A60B7E05D49096841F00402CB
:100238005B490A60B0E05A49096841F00802584928
:100248000A60A9E05649096841F0100254490A6059
:10025800A2E05349096841F0200251490A609BE035
:100268004F49096841F040024D490A6094E04C4901
:10027800096841F080024A490A608DE048490968E6
:1002880041F4807246490A6086E04549096841F4AC
:10029800007243490A607FE04149096841F480627D
:1002A8003F490A6078E03E49096841F400623C49E8
:1002B8000A6071E03A49096841F4805238490A6095
:1002C8006AE03749096841F4005235490A6063E039
:1002D8003349096841F4804231490A605CE0304999
:1002E800096841F400422E490A6055E02C49096822
:1002F80041F480322A490A604EE02949096841F4EC
:10030800003227490A6047E0264988423FF47EAF19
:10031800254988423FF481AF244988423FF484AF9D
:10032800234988423FF487AF224988423FF48AAF85
:10033800214988423FF48DAF204988423FF490AF6D
:100348001F4988423FF493AF1E4988423FF496AF55
:100358001D4988423FF499AF1C4988423FF49CAF3D
:100368001B4988423FF49FAF1A4988423FF4A2AF25
:10037800194988423FF4A5AF184988423FF4A8AF0D
:10038800174988423FF4ABAF164988423FF4AEAFF5
:10039800154988423FF4B1AF01B0704700F0FFFF44
:1003A80008E60F40008005400090054000A0054089
:1003B80000B0054000C0054000D0054000E0054001
:1003C80000F00540000006400010064000200640EE
:1003D80000300640004006400050064000600640DD
:0C03E800007006400080064000900640B7
:0C0D580001480068704700BF48010020FF
:101EE40081B0CDF800E0016808460449FFF73CFDE5
:101EF4000020DDF800E001B0704700BFE0280000DA
:1022BC0081B0CDF800E011E00846FFF7FBFD16E019
:1022CC000846FFF763FE12E00846FFF717FE0EE024
:1022DC000846FFF725FE0AE0012008E00028EBD0B5
:1022EC000128EDD02028EFD03028F1D0F4E7DDF82C
:0622FC0000E001B0704794
:101EC00081B0CDF800E0FFF71FFE044A04490A6024
:101ED0000020DDF800E001B0704700BF651D000084
:041EE00038010020A5
:101B080082B0CDF800E00346214A22490A60224A01
:101B180022490A60224A23490A60234A23490A6063
:101B280001932348FFF7CAF8019B012252B22149C9
:101B38000A6000BF00BF00BFFFF792FDFFF708F97A
:101B480040F2E83100FB01F210461901914205D933
:101B5800012252B218490A605A0804E0002252B21F
:101B680015490A601A46C100B1FBF2F1491C4B083D
:101B78009A0912490A6003F03F0211490A6060227B
:101B880010490A60FFF77EFDDDF800E002B07047FB
:101B9800651D000088010020FFFFFFFF8C01002069
:101BA800FFFFFFFF90010020FFFFFFFF94010020CF
:101BB8002827000014C3FC431406224224100140C5
:081BC800281001402C1001401F
:1016680081B0002149B2044801600448016004487F
:10167800016001B0704700BF0006224220062242E6
:0416880024062242D0
:10168C0081B0012149B2044801600448016004485A
:10169C00016001B0704700BF0006224220062242C2
:0416AC0024062242AC
:101F980081B0CDF800E0FFF7F7FB044A04490A6076
:101FA8000020DDF800E001B0704700BF51190000C3
:041FB80038010020CC
:1017900082B0CDF800E00346214A22490A60224A7D
:1017A00022490A60224A23490A60234A23490A60DF
:1017B00001932348FFF786FA019B012252B2214987
:1017C0000A6000BF00BF00BFFFF740FDFFF7C4FA8B
:1017D00040F2E83100FB01F210461901914205D9AF
:1017E000012252B218490A605A0804E0002252B29B
:1017F00015490A601A46C100B1FBF2F1491C4B08B9
:101800009A0912490A6003F03F0211490A606022F6
:1018100010490A60FFF7E4FCDDF800E002B0704711
:101820005119000088010020FFFFFFFF8C010020FC
:10183000FFFFFFFF90010020FFFFFFFF940100204A
:101840004C2600001CC3FC431406264224300140F1
:08185000283001402C3001405A
:10124C0081B0002149B2044801600448016004489F
:10125C00016001B0704700BF0006264220062642FE
:04126C0024062642EC
:1011E00081B0012149B2044801600448016004480B
:1011F000016001B0704700BF00062642200626426B
:041200002406264258
:101F080081B0CDF800E0FFF7ADFC044A04490A604F
:101F18000020DDF800E001B0704700BF2D1D000073
:041F2800380100205C
:10186C0082B0CDF800E00346214A22490A60224AA0
:10187C0022490A60224A23490A60234A23490A6002
:10188C0001932348FFF718FA019B012252B2214918
:10189C000A6000BF00BF00BFFFF7AEFCFFF756FAAF
:1018AC0040F2E83100FB01F210461901914205D9D2
:1018BC00012252B218490A605A0804E0002252B2BE
:1018CC0015490A601A46C100B1FBF2F1491C4B08DC
:1018DC009A0912490A6003F03F0211490A6060221A
:1018EC0010490A60FFF79AFCDDF800E002B070477F
:1018FC002D1D000088010020FFFFFFFF8C01002040
:10190C00FFFFFFFF90010020FFFFFFFF940100206D
:10191C000428000008C3FC4314061C4224E00040C9
:08192C0028E000402CE000401F
:1012040081B0002149B204480160044801600448E7
:10121400016001B0704700BF00061C4220061C425A
:0412240024061C423E
:1012280081B0012149B204480160044801600448C2
:10123800016001B0704700BF00061C4220061C4236
:0412480024061C421A
:101F2C0081B0CDF800E0FFF72DFC044A04490A60AB
:101F3C000020DDF800E001B0704700BF511900002F
:041F4C003801002038
:1023040081B0CDF800E05C220D490E48FFF754FE81
:102314000D480221FFF798FF0C480221FFF794FFB4
:102324000B480221FFF790FF0A480221FFF78CFFB8
:1023340009480221FFF788FFDDF800E001B070478B
:10234400182B0000902A0000000000201B00002031
:0C23540036000020510000206C0000202A
:101FBC0081B0CDF800E00446054B1A700846FFF7D7
:101FCC00C1FF2046FFF798FFDDF800E001B0704735
:041FDC00D20000200F
:101F5000026806490A60011D0A6805490A6000F224
:101F600008010A6803490A60704700BF3C0100206D
:081F70004001002044010020A3
:021F0400704724
:10224C0083B0CDF800E0024610460D228DF8082030
:10225C000A228DF809201FE0FFF788FE23E00278A0
:10226C002AB10190FFF782FE0198401CF7E71AE0B3
:10227C0002782AB10190FFF779FE0198401CF7E72C
:10228C0002AA1046FFF772FE0DF109021046FFF785
:10229C006DFE08E0062007E00029DDD00129DED024
:1022AC000229E5D0F6E70020DDF800E003B0704726
:101F780081B0CDF800E00178CCB2A0B2034C24685F
:101F8800A0470020DDF800E001B0704738010020CC
:101D800081B00449096801B1FBE70349086001B06B
:0C1D9000704700BF1403184200C0004060
:101D100081B00449096801B1FBE70349086001B0DB
:0C1D2000704700BF14031A4200D00040BE
:101D2C0081B00449096801B1FBE70349086001B0BF
:0C1D3C00704700BF14031C4200E0004090
:101CF40081B00449096801B1FBE70349086001B0F8
:0C1D0400704700BF14031E4200F00040B6
:101D480081B00449096801B1FBE70349086001B0A3
:0C1D5800704700BF14032042000001404F
:101D640081B00449096801B1FBE70349086001B087
:0C1D7400704700BF140322420010014021
:1019340081B00449096801B1FBE70349086001B0BB
:0C194400704700BF140324420020014043
:1019500081B00449096801B1FBE70349086001B09F
:0C196000704700BF140326420030014015
:1023B80081B0CDF800E0FFF731FF1F4800ED000ABB
:1023C800FFF722FE1D4800ED000A1B4810ED000A29
:1023D8001B48FFF72DFE1B480121FFF733FF0121A2
:1023E8001748FFF72FFF18480221FFF72BFF134864
:1023F80010ED000A1248FFF71BFE14480121FFF7F1
:1024080021FF01210E48FFF71DFF11480221FFF7A8
:1024180019FF10480221FFF715FF4CF2FE17C0F60E
:10242800EB377F1EFDD100BF00BF00BF00BF00BF5C
:10243800DDF800E001B07047FC000020000100203A
:102448000401002087000020960000209A00002048
:08245800A9000020AC000020E7
:1022240081B0CDF800E00220FFF7B6FD00EE900A81
:10223400F8EE600AB2EE040A80EE800AB0EE400ABC
:08224400DDF800E001B0704775
:101D9C0085B0CDF800E000218DF8101000218DF8F1
:101DAC00111001AA03211170511C0870921C022100
:101DBC001170FFF74BFD04AA2B4909780023C8B218
:101DCC0011460022FFF702FEFFF740FD01AA26494B
:101DDC0009780023C8B211460322FFF7F7FD58B16A
:101DEC00FFF734FD04AA204909780023C8B2114634
:101DFC000022FFF7EBFD26E0FFF728FD0DF10702AF
:101E0C00194909780023C8B211460622FFF7DAFEF9
:101E1C000DF10703591D0978ADF80E10BDF80E1021
:101E2C000A0292B2ADF80E20191D097842EA01019E
:101E3C00ADF80E1004211846FFF7A0FDBDF80E10EA
:101E4C00884200D100E0B4E70DF10703991C097832
:101E5C00C8B2020292B2D91C097842EA010188B2D6
:0C1E6C00DDF800E005B07047D200002057
:1018580040F2000212B201210148017010B2704733
:04186800C700002095
:1019D80085B0CDF800E0ADF80C200A468DF810303F
:1019E80040F20004ADF808401146424C247854B146
:1019F80001910021404C2468A0470199FFF7E0FBC2
:101A080000253C4C2570BDF80C40012C0DD10C78FC
:101A18000721E0B2394C2468A047BDF908400443C7
:101A2800ADF80840FFF7CCFB57E0BDF80C40022C9E
:101A38001CD10C7801910321E0B2304C2468A047F6
:101A48000199BDF908400443ADF808404C1C2046F4
:101A5800FFF7B6FB04780521E0B2284C2468A047BC
:101A6800BDF908400443ADF8084036E00C78019110
:101A78000321E0B2214C2468A0470199BDF9084030
:101A88000443ADF808404B1CFFF79AFB1946BDF814
:101A98000C40641EA4B2ADF80C40012C12D90C788D
:101AA80001910121E0B2154C2468A0470199BDF9C4
:101AB80008400443ADF808404C1C2346FFF780FB60
:101AC8001946E4E70C780521E0B20C4C2468A047DD
:101AD800BDF908400443ADF808409DF81040012CBA
:101AE80002D10125034C2570BDF90800DDF800E09E
:101AF80005B07047C70000203C01002040010020CD
:1016B00081B0CDF800E0CAB2C1B20348FFF7FAFA30
:0C16C000DDF800E001B0704700000240BF
:100CB40081B04B009BB213439BB2036001B07047F9
:1017040081B0CDF800E0CAB2C1B20348FFF7D0FA05
:0C171400DDF800E001B07047001002405A
:1016E80081B0CDF800E0CAB2C1B20348FFF7DEFA14
:0C16F800DDF800E001B070470020024067
:1016CC0081B0CDF800E0CAB2C1B20348FFF7ECFA22
:0C16DC00DDF800E001B070470030024073
:1017200081B0CDF800E0CAB2C1B20348FFF7C2FAF7
:0C173000DDF800E001B0704700000C4044
:1017740081B0CDF800E0CAB2C1B20348FFF798FACD
:0C178400DDF800E001B0704700100C40E0
:1017580081B0CDF800E0CAB2C1B20348FFF7A6FADB
:0C176800DDF800E001B0704700200C40EC
:10173C0081B0CDF800E0CAB2C1B20348FFF7B4FAE9
:0C174C00DDF800E001B0704700300C40F8
:100F940081B0CDF800E0CAB2C1B20348FFF788FEC1
:0C0FA400DDF800E001B0704700800B4059
:100FCC0081B0CDF800E0CAB2C1B20348FFF76CFEA5
:0C0FDC00DDF800E001B0704700900B4011
:100F780081B0CDF800E0CAB2C1B20348FFF7EEFE77
:0C0F8800DDF800E001B0704700000240FE
:100D640082B0CDF800E04FF000045D4B984205D10D
:100D74005C4B1D685C4B1B6801935BE05B4B9842CA
:100D840006D15B4B1C685B4B1B680193254651E005
:100D9400594B984206D1594B1C68594B1B68019317
:100DA400234646E0574B984206D1574B1C68574B95
:100DB4001B68019323463CE0554B984206D1554BA2
:100DC4001C68554B1B680193234632E0534B9842F1
:100DD40006D1534B1C68534B1B680193234628E0F0
:100DE400514B984206D1514B1C68514B1B680193DF
:100DF40023461EE04F4B984206D14F4B1C684F4B85
:100E04001B680193234614E04D4B984206D14D4B89
:100E14001C684D4B1B68019323460AE04B4B9842D8
:100E240006D14B4B1C684B4B1B680193234600E0D7
:100E340023461D4600F208031960072A05D0032A39
:100E440003D004462846D1B215E02E46D1B202465C
:100E54002846131D1C68C4F380135BB148B126B93E
:100E64000420019CA047012036E0731E1C46264640
:100E7400FFE7EEE71446231D1960FFF74BFBFFF76E
:100E840049FBFFF747FB024625462B1D1C68C4F3AC
:100E940000034BB138B122B90420019CA0470120C2
:100EA4001AE0521EFFE7F0E72B1D1C68C4F3400351
:100EB4006BB1012902D0032900D008E02B1D1C6866
:100EC400C4F300131BB92C1D40F2040323602B1D33
:100ED4001C68C4F34003D8B2DDF800E002B07047E8
:100EE40000000240D40000204C0100200010024009
:100EF400D80000205001002000200240DC00002027
:100F04005401002000300240E0000020580100207D
:100F140000000C40E40000205C01002000100C40A4
:100F2400E80000206001002000200C40EC000020BC
:100F34006401002000300C40F00000206801002013
:100F440000800B40F40000206C01002000900B4056
:080F5400F800002070010020EC
:0C04A80001490860704700BF907FB84217
:0C04B40001490860704700BF807FB8421B
:0C04C00001490860704700BF807FB24215
:0C04840001490860704700BF887FB0424B
:0C04900001490860704700BF907FB04237
:0C049C0001490860704700BF947FB04227
:0C04F00001490860704700BF807FB642E1
:0C04FC0001490860704700BF907FBA42C1
:0C05080001490860704700BF987FB442B2
:0C04CC0001490860704700BF9C7FB442EB
:0C04D80001490860704700BF887FB242F5
:0C04E40001490860704700BF8C7FB242E5
:0C04240001490860704700BF947FB84297
:0C04180001490860704700BF847FB842B3
:0C040C0001490860704700BF947FB242B5
:0C03F40001490860704700BF887FB042DC
:0C04000001490860704700BF907FB042C7
:0C04300001490860704700BF947FB04293
:0C04600001490860704700BF847FB6426D
:0C046C0001490860704700BF987FB6424D
:0C04780001490860704700BF907FB4424B
:0C043C0001490860704700BF947FB44283
:0C04480001490860704700BF887FB24285
:0C04540001490860704700BF8C7FB24275
:1005180040F22607C0F200077F1EFDD100BF00BFD2
:0805280000BF00BF00BF7047D7
:1011700081B0CDF800E0CAB2C1B20348FFF7F2FD7A
:0C118000DDF800E001B0704700100240F4
:1010E40081B0CDF800E0CAB2C1B20348FFF738FEC0
:0C10F400DDF800E001B070470020024071
:1011000081B0CDF800E0CAB2C1B20348FFF72AFEB1
:0C111000DDF800E001B070470030024044
:10111C0081B0CDF800E0CAB2C1B20348FFF71CFEA3
:0C112C00DDF800E001B0704700000C404E
:1010900081B0CDF800E0CAB2C1B20348FFF762FEEA
:0C10A000DDF800E001B0704700100C40CB
:1010AC0081B0CDF800E0CAB2C1B20348FFF754FEDC
:0C10BC00DDF800E001B0704700200C409F
:1010C80081B0CDF800E0CAB2C1B20348FFF746FECE
:0C10D800DDF800E001B0704700300C4073
:10118C0081B0CDF800E0CAB2C1B20348FFF7E4FD6C
:0C119C00DDF800E001B0704700800B405F
:1011A80081B0CDF800E0CAB2C1B20348FFF7D6FD5E
:0C11B800DDF800E001B0704700900B4033
:1011C80049F63E47C0F200077F1EFDD100BF00BFB1
:0811D80000BF00BF00BF70471B
:101BD00085B0CDF800E0ADF80C200A468DF8103045
:101BE00040F20004ADF8084011463F4C247854B14F
:101BF000019101213D4C2468A0470199FFF7E4FAC7
:101C00000025394C2570BDF80C40012C0CD108463C
:101C10000721374C2468A047BDF908400443ADF8BC
:101C20000840FFF7D1FA51E0BDF80C40022C19D161
:101C3000019108460B212E4C2468A0470199BDF95B
:101C400008400443ADF808404C1C2046FFF7BCFA9E
:101C50000521274C2468A047BDF908400443ADF88E
:101C6000084033E0019108460B21214C2468A0472D
:101C70000199BDF908400443ADF808404B1CFFF73B
:101C8000A3FA1946BDF80C40641EA4B2ADF80C408E
:101C9000012C11D9019108460921154C2468A0474F
:101CA0000199BDF908400443ADF808404C1C234697
:101CB000FFF78AFA1946E5E7084605210C4C246827
:101CC000A047BDF908400443ADF808409DF8104016
:101CD000012C02D10125044C2570BDF90800DDF866
:101CE00000E005B0704700BFC70000203C010020A5
:041CF000440100208B
:1011380081B0CDF800E0CAB201460348FFF7B4FC1D
:0C114800DDF800E001B07047000002403C
:100AB00084B0CDF800E0044603914FF000030293A8
:100AC0005E4B9C4206D15E4B1B6802935D4B1B68DC
:100AD000019358E05C4B9C4206D15C4B1B6802932F
:100AE0005B4B1B6801934EE05A4B9C4206D15A4B1C
:100AF0001B680293594B1B68019344E0584B9C427E
:100B000006D1584B1B680293574B1B6801933AE080
:100B1000564B9C4206D1564B1B680293554B1B68A3
:100B2000019330E0544B9C4206D1544B1B68029316
:100B3000534B1B68019326E0524B9C4206D1524B0B
:100B40001B680293514B1B6801931CE0504B9C4265
:100B500006D1504B1B6802934F4B1B68019312E068
:100B60004E4B9C4206D14E4B1B6802934D4B1B686B
:100B7000019308E04C4B9C4205D14C4B1B680293FF
:100B80004B4B1B680193072A03D00B2A01D0204648
:100B900017E0029E2046D1B2031D1C68C4F38013E7
:100BA00073B1029B4BB126B90320019CA0470120E1
:100BB00040E0731E1A46134600E033461E46EBE73C
:100BC000CAB2031D1A60FFF7A7FCFFF7A5FCFFF7E9
:100BD000A3FC029E031D1C68C4F3000363B1029BC7
:100BE0003BB126B90320019CA047012022E0711EE1
:100BF00000E031460E46EDE7031D1C68C4F34003D8
:100C000073B1092A02D00B2A00D008E0031D1C682A
:100C1000C4F300131BB9041D40F20403236004E075
:100C200000F208031C68039B1C70031D1C68C4F3BE
:100C30004003D8B2DDF800E004B070470000024085
:100C4000D40000204C01002000100240D8000020F9
:100C50005001002000200240DC0000205401002050
:100C600000300240E00000205801002000000C404D
:100C7000E40000205C01002000100C40E80000208F
:100C80006001002000200C40EC00002064010020E6
:100C900000300C40F00000206801002000800B4074
:100CA000F40000206C01002000900B40F8000020B0
:040CB00070010020AF
:1011540081B0CDF800E0CAB201460348FFF7A6FC0F
:0C116400DDF800E001B070470010024010
:1010740081B0CDF800E0CAB201460348FFF716FD7F
:0C108400DDF800E001B0704700200240E1
:100FB00081B0CDF800E0CAB201460348FFF778FDE2
:0C0FC000DDF800E001B070470030024096
:100F5C0081B0CDF800E0CAB201460348FFF7A2FD0C
:0C0F6C00DDF800E001B0704700000C4010
:10103C0081B0CDF800E0CAB201460348FFF732FD9B
:0C104C00DDF800E001B0704700100C401F
:1010580081B0CDF800E0CAB201460348FFF724FD8D
:0C106800DDF800E001B0704700200C40F3
:1010200081B0CDF800E0CAB201460348FFF740FDA9
:0C103000DDF800E001B0704700300C401B
:100FE80081B0CDF800E0CAB201460348FFF75CFDC6
:0C0FF800DDF800E001B0704700800B4005
:1010040081B0CDF800E0CAB201460348FFF74EFDB7
:0C101400DDF800E001B0704700900B40D8
:10198800CAB201464FF6FF700C46D1B2CBB2491E1F
:10199800C9B2E3B12278504080B2621C002485B2FB
:1019A8001046082C10D205F0010292B232B16D082F
:1019B800ADB24AF201025540ADB202E06A0893B2F4
:1019C8009DB2641CE4B2ECE70446A8B2DEE77047B7
:1020100081B0CDF800E00020FFF7C0FE00EE900A8E
:10202000F8EE600AB2EE040A80EE800AB0EE400AD2
:08203000DDF800E001B070478B
:1020380083B0CDF800E00446002000235BB28DEDAC
:10204800020A0299B1F1FF3F05D170492046FFF716
:102058001FFF0320D5E0012502A9C91C097801F05A
:102068008001C9B269B102A9CA1C117881F0800146
:102078001170691CCAB22D212170641CD7B2264682
:1020880001E02646EFB2029929B961493046FFF7C7
:10209800FFFE0020B5E00299B1F1FF4F05D15D497F
:1020A8003046FFF7F5FEF8B2ABE08DF80430C3B266
:1020B80034469DF90400DDED020AB7EE000AF4EE9D
:1020C800C00AF1EE10FA0ADADDED020AB2EE040AED
:1020D80020EE800A8DED020A401E40B2EBE7DDEDEE
:1020E800020AB2EE040AF4EEC00AF1EE10FA0BDBB3
:1020F800DDED020A484900EE101A20EE800A8DED47
:10210800020A401C40B2EAE702994900029102A97A
:10211800C91C09787F39CDB202A9CA1C01211170E6
:102128000299A940029102A9C91C0978303121708D
:10213800621C012803DB062801DC154603E02E217A
:102148001170551C0123062144B2C8B210B302A96C
:10215800CA1C0021117002998A00029989180291FB
:1021680002994900029102A9C91C097830312970E5
:102178006D1C63B9611E49B24AB221B92E2129707A
:102188006D1C012100E0D9B254B2CBB2FFE7401E6A
:10219800C0B2DBE72A4660B2511E0978302901D166
:1021A800521EF9E7511E09782E2901D1521EFFE768
:1021B80018B365211170521C002806DA2D21117000
:1021C800521C414248B243B200E043B2D8B2D9B23D
:1021D800092907D90A21B0FBF1F1C9B230311170D0
:1021E800531C00E013460A22B0FBF2F102FB110176
:1021F800C9B230311970581C00E010460021017036
:102208000020DDF800E003B0704700BFC8000020E0
:0C221800CC000020CE000020CDCCCC3D3E
:101E980081B00091014600980B461C465A1C154615
:101EA8000346421C10461A78227022780AB12B4643
:081EB800F3E7084601B0704792
:10251C0081B0CDF800E0344A344B354C354D364E55
:10252C004FF03011354801600021354801606FF0E3
:10253C00010003EA000133480160C3F3C00018B97D
:10254C00FFF708FFFFF706FFC3F3000018B10121E6
:10255C0049B22D4801602D48864203D92C492748A1
:10256C00016021E02B48864203D92B4923480160A6
:10257C001AE04CF25030864203D928491F480160BA
:10258C0012E047F23050864203D925491B480160BE
:10259C000AE0B6F57A5F03D922491848016003E0D6
:1025AC004FF03011154801601F4804601F4805604A
:1025BC006FF0805002EA000111480160012149B21C
:1025CC001B4801601B48016002F0805038B11A486A
:1025DC00006800B9FBE7012149B218480160DDF839
:1025EC0000E001B0704700BF040030331100000060
:1025FC001800800000000000C0D40100C0E00F40B3
:10260C00B0E00F407CE00F40800FFC43A08601003F
:10261C00960130008038010055013000D3003000A5
:10262C00B20030007100300060E10F4064E10F40F7
:10263C007C16FC437816FC43002DFC437016FC43BF
:1023600041F67E27C0F206077F1EFDD100BF00BFE9
:0823700000BF00BF00BF704771
:1024E40081B002490248016001B07047C0D40100C4
:0424F400480100207B
:0824DC0081B0FEE701B070477A
:1024B00081B04EF68850CEF20000016841F4700100
:1024C000016000BF00BF00BF00BFF1EE100A40F482
:0A24D0004000E1EE100A01B0704771
:102B240000B5DFF824B0DFF824A0DFF824C0FFF7F5
:102B3400B3FCDFF820B0DFF820A0DFF820C0FFF7F7
:102B4400ABFC00BD704700BF00000020D200002095
:102B5400BC290000D4000020FC000020F02A000062
:102BC00000B5DFF810B0DFF810A0FFF749FC00BD3A
:0C2BD000704700BF0000002098010020AA
:04051400A0860100BC
:10264C0000A00540100040050100000000A005405E
:10265C002000400501000000000000000000000008
:10266C00000000000000000000000000000000005E
:10267C00000000000000000000000000000000004E
:10268C00000000000000000000000000000000003E
:10269C00000000000000000000000000000000002E
:1026AC00000000000000000000000000000000001E
:1026BC00000000000000000000000000000000000E
:1026CC0000000000000000000000000000000000FE
:1026DC0000000000000000000000000000000000EE
:1026EC0000000000000000000000000000000000DE
:1026FC0000000000000000000000000000000000CE
:10270C0000000000000000000000000000000000BD
:0C271C00000000000000000002000000AF
:1027280000F00540400040050100000000F00540B1
:1027380080004005010000000000000000000000CB
:102748000000000000000000000000000000000081
:102758000000000000000000000000000000000071
:102768000000000000000000000000000000000061
:102778000000000000000000000000000000000051
:102788000000000000000000000000000000000041
:102798000000000000000000000000000000000031
:1027A8000000000000000000000000000000000021
:1027B8000000000000000000000000000000000011
:1027C8000000000000000000000000000000000001
:1027D80000000000000000000000000000000000F1
:1027E80000000000000000000000000000000000E1
:0C27F800000000000000000002000000D3
:1028040000B00540100040050100000000B0054084
:10281400200040050100000000000000000000004E
:1028240000000000000000000000000000000000A4
:102834000000000000000000000000000000000094
:102844000000000000000000000000000000000084
:102854000000000000000000000000000000000074
:102864000000000000000000000000000000000064
:102874000000000000000000000000000000000054
:102884000000000000000000000000000000000044
:102894000000000000000000000000000000000034
:1028A4000000000000000000000000000000000024
:1028B4000000000000000000000000000000000014
:1028C4000000000000000000000000000000000004
:0C28D400000000000000000002000000F6
:1028E00000900540040040050200000000900540F3
:1028F00008000805020000000000000000000000C1
:1029000000000000000000000000000000000000C7
:1029100000000000000000000000000000000000B7
:1029200000000000000000000000000000000000A7
:102930000000000000000000000000000000000097
:102940000000000000000000000000000000000087
:102950000000000000000000000000000000000077
:102960000000000000000000000000000000000067
:102970000000000000000000000000000000000057
:102980000000000000000000000000000000000047
:102990000000000000000000000000000000000037
:1029A0000000000000000000000000000000000027
:0C29B00000000000000000000200000019
:1029BC002D2D2D2D2D2D2D2D2D2D2D2D2D2D2D2D3B
:1029CC002D2D2D2D2D2D2D2D2D2D00202020202099
:1029DC0020204448543232203220436C69636B20EF
:0629EC0020202020200045
:1029F2002D2D2D2D2D2D2D2D2D2D2D2D2D2D2D2D05
:102A02002D2D2D2D2D2D2D2D2D2D00202054656D9C
:102A1200706572617475726520262048756D6964EF
:062A220069747920200018
:102A28002D2D2D2D2D2D2D2D2D2D2D2D2D2D2D2DCE
:102A38002D2D2D2D2D2D2D2D2D2D002054656D7016
:0A2A4800657261747572653A200032
:042A520020B043006D
:102A56002048756D69646974792020203A20002029
:022A6600250049
:102A68002D2D2D2D2D2D2D2D2D2D2D2D2D2D2D2D8E
:0C2A78002D2D2D2D2D2D2D2D2D2D000090
:042A84004E614E0051
:022A880030001C
:042A8A00494E46006B
:102A9000A9040000B5040000C10400008504000082
:102AA000910400009D040000F1040000FD040000FA
:102AB00009050000CD040000D9040000E504000071
:102AC000FFFFFFFFFFFFFFFFFFFFFFFFFFFFFFFF16
:102AD000FFFFFFFFFFFFFFFFFFFFFFFFFFFFFFFF06
:102AE000FFFFFFFFFFFFFFFFFFFFFFFFFFFFFFFFF6
:042AF00000000000E2
:042AF40000000000DE
:042AF80000000000DA
:042AFC0000000000D6
:042B000000000000D1
:042B040000000000CD
:042B080000000000C9
:042B0C0000000000C5
:042B100000000000C1
:042B140000000000BD
:0C2B1800B1160000790F00003911000018
:00000001FF
