:100000005EEF0DF00000000000EF00F000000000C7
:0A0010000000000000000000F3D71C
:0E001C00010192B102D08B9801D08B881200A6
:0E002A00010192B102D08B9601D08B8612009C
:0E003800010192B102D08D9601D08D8612008A
:0E004600010192B102D0899401D08984120088
:0E005400010192B102D08B9C01D08B8C120066
:0E006200010192B102D08B9401D08B84120068
:0E007000010192B102D08B9A01D08B8A12004E
:0E007E00010192B102D08B9E01D08B8E120038
:0E008C00010192B102D08A9201D08A82120044
:0E009A00010192B102D08D9401D08D8412002C
:0E00A800010192B102D08F9201D08F8212001E
:0E00B600010192B102D08F9401D08F8412000C
:0E00C400010192B102D08B9801D08B881200FE
:0E00D200010192B102D08B9601D08B861200F4
:0E00E000010192B102D08A9401D08A841200EC
:0E00EE00010192B102D08B9801D08B881200D4
:0E00FC00010192B102D08B9601D08B861200CA
:0E010A00010192B102D08F9001D08F801200BF
:0E011800010192B102D08B9A01D08B8A1200A5
:0E012600010192B102D08B9801D08B8812009B
:0E013400010192B102D08B9601D08B86120091
:0E014200010192B102D08B9201D08B8212008B
:0E015000010192B102D08B9A01D08B8A12006D
:0E015E00010192B102D08D9001D08D8012006F
:10016C000F0121B302D00000FBD792C11CFF12007B
:0E017C00ACB202D00000FCD792C1ADFF120061
:0E018A00010192B102D08B9001D08B80120047
:0E019800010192B102D0899001D0898012003D
:0E01A600010192B102D08A9001D08A8012002D
:0E01B400010192B102D08D9201D08D82120015
:0E01C200010192B102D0899801D08988120003
:0E01D000010192B102D08B9801D08B881200F1
:0E01DE00010192B102D08B9601D08B861200E7
:0E01EC00010192B102D0899201D089821200E5
:0E01FA00010192B102D08B9C01D08B8C1200BF
:0E020800010192B102D08B9E01D08B8E1200AC
:0E021600010192B102D08B9801D08B881200AA
:0E022400010192B102D08B9601D08B861200A0
:1002320068B409D01F0E6614016E0150000A03E172
:0A024200010E006E01D0006A1200E8
:10024C00F250026EF29E0500FF6A0150FE6E0050E5
:08025C00FD6E02BEF28E1200DD
:10026400C7B409D01F0EC514016E0150000A03E182
:0A027400010E006E01D0006A1200B6
:0C027E00000E0F0121B3010E006E1200F3
:0A028A00000EACB2010E006E12006F
:0A029400000E80B0010E006E120093
:0A029E00000E84B0010E006E120085
:0A02A800000E82B0010E006E12007D
:1002B2001DCF01F00F0122A302D02299228901C091
:0402C20000F0120036
:1002C600AECF01F0ABA202D0AB98AB8801C000F074
:0202D600120014
:0A02D800000E82B6010E006E120047
:0A02E200000E9EBA010E006E12001D
:0A02EC00000EA4BA010E006E12000D
:0A02F600000E82B8010E006E120027
:0A030000000E82B6010E006E12001E
:0A030A00000E82B8010E006E120012
:0A031400000E82B6010E006E12000A
:0A031E00000E80B2010E006E120006
:0A032800000E84B2010E006E1200F8
:0A033200000E80B8010E006E1200EC
:0A033C00000E82BC010E006E1200DC
:0A034600000E82BA010E006E1200D4
:0A035000000E82B8010E006E1200CC
:0A035A00000E82B2010E006E1200C8
:0A036400000E82BE010E006E1200B2
:0A036E00000E81B0010E006E1200B7
:0A037800000E82B8010E006E1200A4
:10038200E8C08EF1E9C08FF1EAC090F1EBC091F1C3
:100392009E96C5869EB620D00001E851E911EA1169
:1003A200EB1119E001018E518F11901191110CE1A5
:1003B20061C1E1FF62C1E2FF030EE66E5FC100F0C0
:1003C20060C101F042DF08D0010E01018E5F000E14
:1003D2008F5B905B915BDED70101C9CF8DF18C51B0
:1003E200000A02E1C58A01D0C59A9E96C588E8C076
:1003F2008EF1E9C08FF1EAC090F1EBC091F19EB6A7
:1004020020D00001E851E911EA11EB1119E00101D4
:100412008E518F11901191110CE161C1E1FF62C106
:10042200E2FF030EE66E5FC100F060C101F00DDF76
:1004320008D0010E01018E5F000E8F5B905B915B15
:08044200DED78DC100F01200AD
:10044A009E968CC1C9FFE8C08DF1E9C08EF1EAC061
:10045A008FF1EBC090F1C7A422D00001E851E91155
:10046A00EA11EB111BE001018D518E118F119011D0
:10047A000EE161C1E1FF62C1E2FF040EE66E5FC1F7
:10048A0000F060C101F0DDDE010E006E3BD0010E0E
:10049A0001018D5F000E8E5B8F5B905BDCD7E8C03D
:1004AA008DF1E9C08EF1EAC08FF1EBC090F19EB6F2
:1004BA0022D00001E851E911EA11EB111BE0010118
:1004CA008D518E118F1190110EE161C1E1FF62C150
:1004DA00E2FF040EE66E5FC100F060C101F0B1DE1A
:1004EA00010E006E0FD0010E01018D5F000E8E5BB2
:1004FA008F5B905BDCD7C5BC02D0006A03D0C58491
:06050A00020E006E12005B
:0A051000000E82B6010E006E12000C
:0A051A00000E81B4010E006E120005
:0A052400000E86B4010E006E1200F6
:0A052E00000E86B2010E006E1200EE
:100538009DC08CF19EC08DF19FC08EF1A0C08FF13F
:10054800668266A220D000019D519E119F11A011C4
:1005580019E001018C518D118E118F110CE124C10C
:10056800E1FF25C1E2FF060EE66E22C100F023C1BD
:1005780001F068DE08D0010E01018C5F000E8D5B72
:080588008E5B8F5BDED71200D1
:04059000668412006B
:10059400E8C08EF1E9C08FF1EAC090F1EBC091F1AF
:1005A40001018C6B8D6B8D51120802E18C518E0808
:1005B40008E356DE005201E004D001018C4B8D2B80
:1005C400F2D70101120E8D5D02E18F0E8C5D03E303
:1005D4007B0E006E26D0C580C5A022D00001E85154
:1005E400E911EA11EB111BE001018E518F119011F9
:1005F40091110EE161C1E1FF62C1E2FF050EE66EF9
:100604005FC100F060C101F01FDE010E006E09D071
:10061400010E01018E5F000E8F5B905B915BDCD756
:04062400006A120056
:04062800C584120073
:10062C009DC08EF19EC08FF19FC090F1A0C091F142
:10063C00A19A6686A1BA20D000019D519E119F11EE
:10064C00A01119E001018E518F11901191110CE143
:10065C0024C1E1FF25C1E2FF030EE66E22C100F0CA
:10066C0023C101F0EDDD08D0010E01018E5F000EFB
:10067C008F5B905B915BDED701016ACF8DF18C5162
:10068C00000A02E1668A01D0669AA19A66889DC02A
:10069C008EF19EC08FF19FC090F1A0C091F1A1BAD4
:1006AC0020D000019D519E119F11A01119E0010154
:1006BC008E518F11901191110CE124C1E1FF25C1D4
:1006CC00E2FF030EE66E22C100F023C101F0B8DD9B
:1006DC0008D0010E01018E5F000E8F5B905B915B69
:0806EC00DED78DC100F0120001
:1006F400A19A8CC16AFF9DC08DF19EC08EF19FC0EE
:100704008FF1A0C090F168A422D000019D519E11E8
:100714009F11A0111BE001018D518E118F119011B9
:100724000EE124C1E1FF25C1E2FF040EE66E22C101
:1007340000F023C101F088DD010E006E3BD0010EF4
:1007440001018D5F000E8E5B8F5B905BDCD79DC0DB
:100754008DF19EC08EF19FC08FF1A0C090F1A1BA1F
:1007640022D000019D519E119F11A0111BE0010197
:100774008D518E118F1190110EE124C1E1FF25C11D
:10078400E2FF040EE66E22C100F023C101F05CDD3D
:10079400010E006E0FD0010E01018D5F000E8E5B05
:1007A4008F5B905BDCD766BC02D0006A03D06684A2
:0607B400020E006E1200AF
:1007BA00E8C08CF1E9C08DF1EAC08EF1EBC08FF18F
:1007CA00C582C5A220D00001E851E911EA11EB1156
:1007DA0019E001018C518D118E118F110CE161C14B
:1007EA00E1FF62C1E2FF060EE66E5FC100F060C182
:1007FA0001F027DD08D0010E01018C5F000E8D5B30
:08080A008E5B8F5BDED712004C
:0A081200000E86B0010E006E120009
:0A081C00000E82BE010E006E1200F5
:0A082600000E82BC010E006E1200ED
:0A083000000E82B6010E006E1200E9
:0A083A00000E81B2010E006E1200E4
:0A084400000E82BA010E006E1200D1
:0A084E00000E82B4010E006E1200CD
:100858009DC08EF19EC08FF19FC090F1A0C091F114
:1008680001018C6B8D6B8D51120802E18C518E0841
:1008780008E3DBDC005201E004D001018C4B8D2B36
:10088800F2D70101120E8D5D02E18F0E8C5D03E33C
:100898007B0E006E26D0668066A022D000019D5196
:1008A8009E119F11A0111BE001018E518F11901113
:1008B80091110EE124C1E1FF25C1E2FF050EE66EAC
:1008C80022C100F023C101F0BDDC010E006E09D089
:1008D800010E01018E5F000E8F5B905B915BDCD790
:0408E800006A120090
:0A08EC00000E82B6010E006E12002D
:0A08F600000E82B8010E006E120021
:0A090000000E82BA010E006E120014
:0A090A00000E84B4010E006E12000E
:0A091400000E82B8010E006E120002
:0A091E00000E80B4010E006E1200FE
:0A092800000E84B6010E006E1200EE
:10093200086A096A100E0C6E013408360936045032
:10094200085E0550D8A0053C095ED8B007D0045017
:1009520008260550D8B0053C0926D8900036013645
:060962000C2EEAD7120082
:100968000101866B050E865D0AE286518425E16EDB
:10097800000E8521E26E200EE66E862BF3D7865197
:100988008425E16E000E8521E26EE66A86078651AF
:100998008425876F000E8521886F0A0E046E000E6D
:1009A800056E82C100F083C101F0BFDF08C000F00E
:1009B80009C001F0300E002687C1E1FF88C1E2FFBF
:1009C80000C0E6FF0A0E046E000E056E82C100F03C
:1009D80083C101F0AADF00C082F101C083F1000EDB
:1009E800011802E1000E001801E102D08607CFD7F6
:0209F8001200EB
:1009FA000101826B836B3BC100F03CC101F021DC39
:100A0A0000C082F1000E0101836F82C100F083C130
:040A1A0001F01200D5
:100A1E00640E01015B6F020E5C6F000E5D6F000EC7
:100A2E005E6F940E676F050E686F000E696F000E95
:100A3E006A6FBA0E636F070E646F000E656F000E5D
:100A4E00666F820E576F030E586F8C0E596F010E24
:100A5E005A6F4A0E476F040E486F8C0E496F010E87
:100A6E004A6F280E436F060E446F000E456F000E40
:100A7E00466F949894968B988B9694889486C79E7E
:080A8E00C79C380EC66E120071
:100A96007C0E01013F6F010E406F920E416F010EF9
:100AA600426FC60E536F020E546F000E556F000E46
:100AB600566FE20E4F6F020E506F000E516F000E12
:100AC600526F8A0E4B6F020E4C6F000E4D6F000E6A
:100AD6004E6FAC8A900EAB6E948E949C9EAA03D0F9
:080AE600AECF00F0FBD71200B7
:100AEE006C0E01013F6F010E406F920E416F010EB1
:100AFE00426FB20E536F020E546F000E556F000E02
:100B0E00566FEC0E4F6F020E506F000E516F000EAF
:100B1E00526F7E0E4B6F020E4C6F000E4D6F000E1D
:100B2E004E6F0F01218B900E226F98849892A4AA7B
:0A0B3E0003D01DCF00F0FBD712001A
:100B480035C1E1FF36C1E2FF82C1E9FF83C1EAFF97
:100B5800EECFE6FF33C100F034C101F026EC01F01E
:040B6800006A12000D
:100B6C00FF0E0101856FFF0E866F84C100F08407B4
:100B7C0000521EE082C1D9FF83C1DAFFDE50851B13
:100B8C00000E861B824B832B026A080E025C0FE25E
:100B9C0085A108D086338533869F010E851BA00E58
:100BAC00861B03D086338533869F022AEED7DDD78A
:0A0BBC0085C100F086C101F01200AF
:100BC60001018A6B8B6B83C188F184C189F182C173
:100BD60000F000360090008029C1E1FF2AC1E2FF43
:100BE60000C0E6FF27C100F028C101F026EC01F0A5
:100BF600005001018A13000E8B13010E855F000E53
:100C0600865B8551861116E02DC1E1FF2EC1E2FFFC
:100C1600010EE66E2BC100F02CC101F026EC01F0AE
:100C260088C1E1FF89C1E2FF00C0E6FF0101884BF0
:100C3600892BE3D72DC1E1FF2EC1E2FFE66A2BC166
:100C460000F02CC101F026EC01F088C1E1FF89C15A
:100C5600E2FF00C0E6FF01018751000A06E137C145
:100C660000F038C101F026EC01F001018751010ABC
:100C760006E12FC100F030C101F026EC01F08AC177
:080C860000F08BC101F0120027
:100C8E0001018A6B8B6B83C188F184C189F182C1AA
:100C9E0000F00036009029C1E1FF2AC1E2FF00C03A
:100CAE00E6FF27C100F028C101F026EC01F000504C
:100CBE0001018A13000E8B1385C100F086C101F06D
:100CCE00010E855F000E865B0050011018E029C1F1
:100CDE00E1FF2AC1E2FF88C1E9FF89C1EAFFEECF39
:100CEE00E6FF27C100F028C101F026EC01F000500C
:100CFE0001018A13000E8B13884B892BDDD7875188
:100D0E00000A06E137C100F038C101F026EC01F00F
:100D1E0001018751010A06E12FC100F030C101F037
:0E0D2E0026EC01F08AC100F08BC101F012002A
:100D3C0021D0CF0EAF6EAC94A8DE6BD0670EAF6E29
:100D4C00AC94A3DE66D0CF0EAF6EAC849EDE61D0C9
:100D5C00670EAF6EAC8499DE5CD0440EAF6EAC8483
:100D6C0094DE57D0220EAF6EAC848FDE52D0060EBE
:100D7C00006E58D00101000E006E751908E100508C
:100D8C00741905E1120E731902E17251C00AD1E017
:100D9C00000E006E751908E10050741905E1250E5E
:100DAC00731902E17251800AC9E0000E006E7519C8
:100DBC0008E10050741905E14B0E731902E17251F0
:100DCC00000AC1E0000E006E751908E1005074199C
:100DDC0005E1960E731902E17251000AB9E0000E9A
:100DEC00006E751908E10050741905E1E10E7319D4
:100DFC0002E17251000AB1E07551000A08E1745128
:100E0C00010A05E17351C20A02E17251000AAAE01B
:100E1C00AED77C0E336F010E346F920E356F010E10
:060E2C00366F006A12009F
:100E320072C175F173C176F10D0E0101776F0A0E61
:100E4200786F35D075C182F176C183F17CDE3AD0FC
:100E520075C1E9FF76C1EAFFEE5209E075C182F180
:100E620076C183F170DE0101754B762BF1D72AD062
:100E720075C1E9FF76C1EAFFEE5209E075C182F160
:100E820076C183F160DE0101754B762BF1D701014A
:100E9200770E826F010E836F56DE780E0101826F2C
:100EA200010E836F50DE0ED0060E006E0CD00101D3
:100EB2007451000AC7E07451010ACAE07451020A6F
:080EC200D7E0F2D7006A12002C
:100ECA0021D0CF0EAF6EAC94E1DD6BD0670EAF6E62
:100EDA00AC94DCDD66D0CF0EAF6EAC84D7DD61D0CA
:100EEA00670EAF6EAC84D2DD5CD0440EAF6EAC84BC
:100EFA00CDDD57D0220EAF6EAC84C8DD52D0060EBF
:100F0A00006E58D00101000E006E751908E10050FC
:100F1A00741905E1120E731902E17251C00AD1E087
:100F2A00000E006E751908E10050741905E1250ECE
:100F3A00731902E17251800AC9E0000E006E751938
:100F4A0008E10050741905E14B0E731902E1725160
:100F5A00000AC1E0000E006E751908E1005074190C
:100F6A0005E1960E731902E17251000AB9E0000E0A
:100F7A00006E751908E10050741905E1E10E731944
:100F8A0002E17251000AB1E07551000A08E1745198
:100F9A00010A05E17351C20A02E17251000AAAE08C
:100FAA00AED77C0E336F010E346F920E356F010E81
:060FBA00366F006A120010
:100FC00038D00F0120870D0E1F6F040E1E6F218574
:100FD0008EDD7ED00F012087060E1F6F820E1E6FE2
:100FE000218585DD75D00F012087030E1F6F400E10
:100FF0001E6F21857CDD6CD00F012087010E1F6FD5
:10100000A00E1E6F218573DD63D00F012087010EB6
:101010001F6F150E1E6F21856ADD5AD00F012087C4
:101020001F6B8A0E1E6F218562DD52D0060E006E88
:1010300059D0000E006E0101751908E100507419B5
:1010400005E1120E731902E17251C00ABAE0000EF6
:10105000006E751908E10050741905E1250E731929
:1010600002E17251800AB6E0000E006E751908E1C7
:101070000050741905E14B0E731902E17251000A18
:10108000B2E0000E006E751908E10050741905E118
:10109000960E731902E17251000AAEE0000E006E66
:1010A000751908E10050741905E1E10E731902E1A8
:1010B0007251000AAAE07551000A08E17451010A50
:1010C00005E17351C20A02E17251000AA7E0AED7EE
:1010D00001016C0E336F010E346F920E356F010EED
:0610E000366F006A1200E9
:1010E60021D0CF0EAF6EAC94D3DC6BD0670EAF6E53
:1010F600AC94CEDC66D0CF0EAF6EAC84C9DC61D0CA
:10110600670EAF6EAC84C4DC5CD0440EAF6EAC84AC
:10111600BFDC57D0220EAF6EAC84BADC52D0060EBE
:10112600006E58D00101000E006E751908E10050DE
:10113600741905E1120E731902E17251C00AD1E069
:10114600000E006E751908E10050741905E1250EB0
:10115600731902E17251800AC9E0000E006E75191A
:1011660008E10050741905E14B0E731902E1725142
:10117600000AC1E0000E006E751908E100507419EE
:1011860005E1960E731902E17251000AB9E0000EEC
:10119600006E751908E10050741905E1E10E731926
:1011A60002E17251000AB1E07551000A08E174517A
:1011B600010A05E17351C20A02E17251000AAAE06E
:1011C600AED77C0E336F010E346F920E356F010E63
:0611D600366F006A1200F2
:1011DC000101786B796B72C17AF173C17BF1800E6E
:1011EC007319006E800E005C02E1000E725D0BE262
:1011FC00010E786F000E796F725100087A6F73C10F
:10120C007BF1000E7B577AC182F17BC183F174C1F3
:10121C0084F175C185F1B4EC04F0060E766F000E06
:10122C00776F000E006E7751005C02E1765100087A
:10123C0019E276517425E16E77517521E26E010E3B
:10124C00765D006E000E7759016E00507425E96EC4
:10125C0001507521EA6EEECFE6FF010E765F000EAF
:10126C00775BDFD774C1E1FF75C1E2FF200EE66E3C
:10127C00785179111AE0766B776B76517425E96E9B
:10128C0077517521EA6EEE50200A03E1764B772BED
:10129C00F4D7010E765F000E775B76517425E16E04
:0C12AC0077517521E26E2D0EE66E1200E7
:1012B80072C175F173C176F174C177F10DD0A00ECA
:1012C800C86E0FEC05F045D0280EC86E0FEC05F07F
:1012D80040D0040E006E3FD075C1F6FF76C1F7FF0F
:1012E80077C1F8FF0900F5CF01F00900F5CF02F04A
:1012F8000900F5CF03F00900F5CF04F00450000A07
:1013080008E10350010A05E10250860A02E1015092
:10131800A00AD5E075C1F6FF76C1F7FF77C1F8FFDF
:101328000900F5CF01F00900F5CF02F00900F5CF6B
:1013380003F00900F5CF04F00450000A08E1035057
:10134800060A05E102501A0A02E10150800ABCE0CF
:08135800C0D7000E006E120068
:1013600072C175F173C176F174C177F10DD0A00E21
:10137000C86E0FEC05F045D0280EC86E0FEC05F0D6
:1013800040D0040E006E3FD075C1F6FF76C1F7FF66
:1013900077C1F8FF0900F5CF01F00900F5CF02F0A1
:1013A0000900F5CF03F00900F5CF04F00450000A5E
:1013B00008E10350010A05E10250860A02E10150EA
:1013C000A00AD5E075C1F6FF76C1F7FF77C1F8FF37
:1013D0000900F5CF01F00900F5CF02F00900F5CFC3
:1013E00003F00900F5CF04F00450000A08E10350AF
:1013F000060A05E102501A0A02E10150800ABCE027
:08140000C0D7000E006E1200BF
:1014080072C175F173C176F174C177F10DD0A00E78
:10141800C86E0FEC05F045D0280EC86E0FEC05F02D
:1014280040D0040E006E3FD075C1F6FF76C1F7FFBD
:1014380077C1F8FF0900F5CF01F00900F5CF02F0F8
:101448000900F5CF03F00900F5CF04F00450000AB5
:1014580008E10350010A05E10250860A02E1015041
:10146800A00AD5E075C1F6FF76C1F7FF77C1F8FF8E
:101478000900F5CF01F00900F5CF02F00900F5CF1A
:1014880003F00900F5CF04F00450000A08E1035006
:10149800060A05E102501A0A02E10150800ABCE07E
:0814A800C0D7000E006E120017
:0214B000120028
:1014B2000101806B816B030E736F72C174F1020EB6
:1014C200756FFDEC04F026C182F1800E836F010E70
:1014D200846F856B866B876B47EC06F0FDEC04F03E
:1014E20026C182F1730E836F010E846F030E856F26
:1014F200000E866F876B47EC06F0000E011802E1C2
:10150200000E00180EE0FDEC04F026C182F1800E00
:10151200836F010E846F856B866B876B47EC06F0D9
:101522002AD0FDEC04F026C182F1760E836F010E03
:10153200846F060E856F000E866F876BE3EC05F0F5
:101542007BC17CF1000E01017D6F7CC17DF17C6B62
:101552007A517C13000E7D13760E826F010E836F1B
:10156200040E846FB6EC05F001507D1902E17C5146
:10157200001801E101D0A5D7010178C17EF1000E6A
:101582007F6F7EC101F0006A00C07EF101C07FF171
:1015920079510012000E011200C07EF101C07FF1EC
:0215A200120035
:1015A4000101746B756B72C103F073C104F072C1F5
:1015B40005F073C106F003C0E9FF04C0EAFFEE5072
:1015C400200A04E17451751101E110D0010E746F09
:1015D400000E756F03C0E9FF04C0EAFF05C0E1FF18
:1015E40006C0E2FFEECFE6FF054A062A03C001F07B
:1015F40004C002F0034A042A01C0E9FF02C0EAFF62
:10160400EE50000AD8E172C100F073C101F012007B
:1016140072C1F6FF73C1F7FF74C1F8FF0900F5CF7B
:101624003BF10900F5CF3CF10900F5CF3DF109008C
:10163400F5CF3EF1040E01017225F66E000E732102
:10164400F76E000E7421F86E0900F5CF37F109002A
:10165400F5CF38F10900F5CF39F10900F5CF3AF1AA
:10166400080E7225F66E000E7321F76E000E7421BB
:10167400F86E0900F5CF2FF10900F5CF30F109001C
:10168400F5CF31F10900F5CF32F10C0E7225F66E6B
:10169400000E7321F76E000E7421F86E0900F5CF69
:1016A40027F10900F5CF28F10900F5CF29F1090048
:1016B400F5CF2AF1100E7225F66E000E7321F76E27
:1016C400000E7421F86E0900F5CF2BF10900F5CF57
:1016D4002CF10900F5CF2DF10900F5CF2EF1120000
:1016E400520E0B6E2B0E0C6E000E0D6E0D2EFED7D1
:0C16F4000C2EFCD70B2EFAD700001200C1
:1017000071C126F16EC172F16FC173F170C174F1D4
:1017100081DF6BC172F16CC173F16DC174F1C8DE10
:021720001200B5
:101722001BD06CC172F16DC173F16EC174F1C3DD76
:101732001ED06CC172F16DC173F16EC174F163DEC2
:1017420016D06CC172F16DC173F16EC174F107DE16
:101752000ED0010E006E0BD001016B51000AE1E0C8
:101762006B51010AE6E06B51020AEBE0F2D712007C
:081772000101726B9DDE120003
:10177A00D70E0101726F000E736F010E746F19ECB0
:10178A0007F00A0E046E000E056E20C100F021C19A
:10179A0001F099EC04F000C072F101C073F1EE0E91
:1017AA000101746F000E756F14DDEE0E726F000E7C
:1017BA00736FF3DEEE0E726F000E736F010E746FAD
:1017CA0019EC07F06C0E0101726F000E736F010EB7
:1017DA00746F19EC07F00A0E046E000E056E20C134
:1017EA0000F021C101F099EC04F008C000F009C032
:1017FA0001F000C072F101C073F1EE0E0101746FC5
:10180A00000E756FE6DCEE0E726F000E736FC5DEAA
:10181A00EE0E726F000E736F010E746F19EC07F003
:10182A007F0E0101726F000E736F020E746F19EC56
:10183A0007F06E0E0101726F000E736F010E746F66
:10184A0019EC07F00A0E046E000E056EECC000F0EB
:10185A00EDC001F099EC04F000C072F101C073F11F
:10186A00EE0E0101746F000E756FB3DCEE0E726F2F
:10187A00000E736F92DEEE0E726F000E736F010E22
:10188A00746F19EC07F0190E0101726F000E736F75
:10189A00010E746F19EC07F00A0E046E000E056E45
:1018AA00ECC000F0EDC001F099EC04F008C000F0C3
:1018BA0009C001F000C072F101C073F1EE0E01011E
:1018CA00746F000E756F85DCEE0E726F000E736F0B
:1018DA0064DEEE0E726F000E736F010E746F19ECF8
:1018EA0007F0150E0101726F000E736F020E746F0E
:1018FA0019EC07F01B0E0101726F000E736F020ED6
:08190A00746F19EC07F01200E4
:0A191200020E0101726FCCDD12001D
:10191C002FD06CC172F16DC173F16EC174F16FC1D6
:10192C0075F173EC08F032D06CC172F16DC173F1CA
:10193C006EC174F16FC175F19EEC06F027D06CC1CD
:10194C0072F16DC173F16EC174F16FC175F1E0ECA0
:10195C0007F01CD06CC172F16DC173F16EC174F1E2
:10196C006FC175F165EC07F011D0010E006E0ED051
:10197C0001016B51000ACDE06B51010AD5E06B51AE
:0E198C00020ADDE06B51100AE5E0EFD7120011
:10199A0001016B6B150E6C6F1C0E6D6F000E6E6F76
:1019AA00BBDE100E01016B6F800E6C6F250E6D6F22
:1019BA00000E6E6F6F6FADDF090E0B6E1E0E0C6E92
:1019CA00E40E0D6E0D2EFED70C2EFCD70B2EFAD779
:0419DA0000001200F7
:1019DE000900F5CFE6FF0006FBE10106F9E1120072
:1019EE0091DF00C0ECF001C0EDF075DEBBDE00C093
:1019FE0020F101C021F1BADE020E0A6E960E0B6EB8
:101A0E00D80E0C6E080E0D6E0D2EFED70C2EFCD7BA
:0C1A1E000B2EFAD70A2EF8D70000120099
:101A2A00A10E01016B6F1B0E6C6F000E6D6F010E24
:101A3A006E6F1C0E6F6F000E706F5C0E716F5BDE47
:101A4A00290E0B6E960E0C6E7F0E0D6E0D2EFED7A6
:101A5A000C2EFCD70B2EFAD7510E726F000E736F35
:101A6A00020E746F19EC07F0360E0101726F000E48
:101A7A00736F020E746F19EC07F0820E0101726F18
:101A8A00000E736F020E746F19EC07F0BC0E0101A1
:101A9A00726F000E736F020E746F19EC07F0A10ECD
:101AAA000101726F000E736F020E746F19EC07F06A
:021ABA00120018
:0E1ABC000DEC0EF06CDFB3DF94DFFED7FFD72A
:101C1A0010EE15F0D70E006E010E016ECA0EF66EAA
:0E1C2A001A0EF76E000EF86EEFEC0CF01200C2
:041ACA0020B0430005
:021ACE002E00E8
:101AD0002D2D2D2D2D2D2D2D2D2D2D2D2D2D2D2D36
:0B1AE0002D2D2D2D2D2D2D2D2D2D0039
:101AEB002020202020202044485432322032204312
:0B1AFB006C69636B202020202020007D
:101B06002D2D2D2D2D2D2D2D2D2D2D2D2D2D2D2DFF
:0B1B16002D2D2D2D2D2D2D2D2D2D0002
:021B21002E0094
:101B230020202054656D70657261747572653A206A
:011B330000B1
:031B340020250069
:101B37002D2D2D2D2D2D2D2D2D2D2D2D2D2D2D2DCE
:0B1B47002D2D2D2D2D2D2D2D2D2D00D1
:041B5200000000008F
:101B56002D2D2D2D2D2D2D2D2D2D2D2D2D2D2D2DAF
:0B1B66002D2D2D2D2D2D2D2D2D2D00B2
:101B7100202054656D706572617475726520262030
:0B1B810048756D6964697479202000CC
:101B8C0020202048756D69646974792020203A20E2
:011B9C000048
:041B9D000000000044
:101BA100980192018A0192015E0192013401920130
:101BB100260192015001920142019201A601920176
:101BC10008029201FA019201240292011602920185
:101BD10094020000A80200009E0200000003000021
:101BE10050030000460300005A0300006E0300008A
:101BF100640300003C030000140300000A0300001A
:101C01009405000028060000BA0700004A048C0170
:041C110082038C01BD
:041C1500A0860100A4
:020000040030CA
:0E00000015137F7CF98B91FFFFC0FFE0FF40DE
:00000001FF
